{"abi":[{"inputs":[{"internalType":"contract myToken","name":"_token","type":"address"}],"stateMutability":"nonpayable","type":"constructor"},{"inputs":[],"name":"Staking__NeedsMoreThanZero","type":"error"},{"inputs":[],"name":"claimRewards","outputs":[],"stateMutability":"nonpayable","type":"function"},{"inputs":[{"internalType":"address","name":"staker","type":"address"}],"name":"policyRewardsperToken","outputs":[{"internalType":"uint256","name":"","type":"uint256"}],"stateMutability":"view","type":"function"},{"inputs":[],"name":"returnBalanceHJK","outputs":[{"internalType":"uint256","name":"","type":"uint256"}],"stateMutability":"view","type":"function"},{"inputs":[{"internalType":"address","name":"","type":"address"}],"name":"rewardAcumulatedPerUser","outputs":[{"internalType":"uint256","name":"","type":"uint256"}],"stateMutability":"view","type":"function"},{"inputs":[],"name":"rewardPeriod","outputs":[{"internalType":"uint256","name":"","type":"uint256"}],"stateMutability":"view","type":"function"},{"inputs":[],"name":"rewardRate","outputs":[{"internalType":"uint256","name":"","type":"uint256"}],"stateMutability":"view","type":"function"},{"inputs":[{"internalType":"uint256","name":"_amount","type":"uint256"}],"name":"stake","outputs":[],"stateMutability":"nonpayable","type":"function"},{"inputs":[{"internalType":"address","name":"","type":"address"}],"name":"stakers","outputs":[{"internalType":"uint256","name":"","type":"uint256"}],"stateMutability":"view","type":"function"},{"inputs":[],"name":"totalSupplyStaked","outputs":[{"internalType":"uint256","name":"","type":"uint256"}],"stateMutability":"view","type":"function"},{"inputs":[{"internalType":"uint256","name":"_amount","type":"uint256"}],"name":"unstaked","outputs":[],"stateMutability":"nonpayable","type":"function"}],"devdoc":{"kind":"dev","methods":{},"version":1},"evm":{"assembly":"    /* \"Stake.sol\":7191:9783  contract Stake {... */\n  mstore(0x40, 0x80)\n    /* \"Stake.sol\":7658:7721  constructor(myToken _token) {... */\n  callvalue\n  dup1\n  iszero\n  tag_1\n  jumpi\n  0x00\n  dup1\n  revert\ntag_1:\n  pop\n  mload(0x40)\n  sub(codesize, bytecodeSize)\n  dup1\n  bytecodeSize\n  dup4\n  codecopy\n  dup2\n  dup2\n  add\n  0x40\n  mstore\n  dup2\n  add\n  swap1\n  tag_2\n  swap2\n  swap1\n  tag_3\n  jump\t// in\ntag_2:\n    /* \"Stake.sol\":7707:7713  _token */\n  dup1\n    /* \"Stake.sol\":7697:7704  mytoken */\n  0x00\n  dup1\n    /* \"Stake.sol\":7697:7713  mytoken = _token */\n  0x0100\n  exp\n  dup2\n  sload\n  dup2\n  0xffffffffffffffffffffffffffffffffffffffff\n  mul\n  not\n  and\n  swap1\n  dup4\n  0xffffffffffffffffffffffffffffffffffffffff\n  and\n  mul\n  or\n  swap1\n  sstore\n  pop\n    /* \"Stake.sol\":7658:7721  constructor(myToken _token) {... */\n  pop\n    /* \"Stake.sol\":7191:9783  contract Stake {... */\n  jump(tag_6)\n    /* \"#utility.yul\":88:205   */\ntag_8:\n    /* \"#utility.yul\":197:198   */\n  0x00\n    /* \"#utility.yul\":194:195   */\n  dup1\n    /* \"#utility.yul\":187:199   */\n  revert\n    /* \"#utility.yul\":334:460   */\ntag_10:\n    /* \"#utility.yul\":371:378   */\n  0x00\n    /* \"#utility.yul\":411:453   */\n  0xffffffffffffffffffffffffffffffffffffffff\n    /* \"#utility.yul\":404:409   */\n  dup3\n    /* \"#utility.yul\":400:454   */\n  and\n    /* \"#utility.yul\":389:454   */\n  swap1\n  pop\n    /* \"#utility.yul\":334:460   */\n  swap2\n  swap1\n  pop\n  jump\t// out\n    /* \"#utility.yul\":466:570   */\ntag_11:\n    /* \"#utility.yul\":511:518   */\n  0x00\n    /* \"#utility.yul\":540:564   */\n  tag_21\n    /* \"#utility.yul\":558:563   */\n  dup3\n    /* \"#utility.yul\":540:564   */\n  tag_10\n  jump\t// in\ntag_21:\n    /* \"#utility.yul\":529:564   */\n  swap1\n  pop\n    /* \"#utility.yul\":466:570   */\n  swap2\n  swap1\n  pop\n  jump\t// out\n    /* \"#utility.yul\":576:695   */\ntag_12:\n    /* \"#utility.yul\":628:635   */\n  0x00\n    /* \"#utility.yul\":657:689   */\n  tag_23\n    /* \"#utility.yul\":683:688   */\n  dup3\n    /* \"#utility.yul\":657:689   */\n  tag_11\n  jump\t// in\ntag_23:\n    /* \"#utility.yul\":646:689   */\n  swap1\n  pop\n    /* \"#utility.yul\":576:695   */\n  swap2\n  swap1\n  pop\n  jump\t// out\n    /* \"#utility.yul\":701:853   */\ntag_13:\n    /* \"#utility.yul\":789:828   */\n  tag_25\n    /* \"#utility.yul\":822:827   */\n  dup2\n    /* \"#utility.yul\":789:828   */\n  tag_12\n  jump\t// in\ntag_25:\n    /* \"#utility.yul\":782:787   */\n  dup2\n    /* \"#utility.yul\":779:829   */\n  eq\n    /* \"#utility.yul\":769:847   */\n  tag_26\n  jumpi\n    /* \"#utility.yul\":843:844   */\n  0x00\n    /* \"#utility.yul\":840:841   */\n  dup1\n    /* \"#utility.yul\":833:845   */\n  revert\n    /* \"#utility.yul\":769:847   */\ntag_26:\n    /* \"#utility.yul\":701:853   */\n  pop\n  jump\t// out\n    /* \"#utility.yul\":859:1032   */\ntag_14:\n    /* \"#utility.yul\":931:936   */\n  0x00\n    /* \"#utility.yul\":962:968   */\n  dup2\n    /* \"#utility.yul\":956:969   */\n  mload\n    /* \"#utility.yul\":947:969   */\n  swap1\n  pop\n    /* \"#utility.yul\":978:1026   */\n  tag_28\n    /* \"#utility.yul\":1020:1025   */\n  dup2\n    /* \"#utility.yul\":978:1026   */\n  tag_13\n  jump\t// in\ntag_28:\n    /* \"#utility.yul\":859:1032   */\n  swap3\n  swap2\n  pop\n  pop\n  jump\t// out\n    /* \"#utility.yul\":1038:1419   */\ntag_3:\n    /* \"#utility.yul\":1123:1129   */\n  0x00\n    /* \"#utility.yul\":1172:1174   */\n  0x20\n    /* \"#utility.yul\":1160:1169   */\n  dup3\n    /* \"#utility.yul\":1151:1158   */\n  dup5\n    /* \"#utility.yul\":1147:1170   */\n  sub\n    /* \"#utility.yul\":1143:1175   */\n  slt\n    /* \"#utility.yul\":1140:1259   */\n  iszero\n  tag_30\n  jumpi\n    /* \"#utility.yul\":1178:1257   */\n  tag_31\n  tag_8\n  jump\t// in\ntag_31:\n    /* \"#utility.yul\":1140:1259   */\ntag_30:\n    /* \"#utility.yul\":1298:1299   */\n  0x00\n    /* \"#utility.yul\":1323:1402   */\n  tag_32\n    /* \"#utility.yul\":1394:1401   */\n  dup5\n    /* \"#utility.yul\":1385:1391   */\n  dup3\n    /* \"#utility.yul\":1374:1383   */\n  dup6\n    /* \"#utility.yul\":1370:1392   */\n  add\n    /* \"#utility.yul\":1323:1402   */\n  tag_14\n  jump\t// in\ntag_32:\n    /* \"#utility.yul\":1313:1402   */\n  swap2\n  pop\n    /* \"#utility.yul\":1269:1412   */\n  pop\n    /* \"#utility.yul\":1038:1419   */\n  swap3\n  swap2\n  pop\n  pop\n  jump\t// out\n    /* \"Stake.sol\":7191:9783  contract Stake {... */\ntag_6:\n  dataSize(sub_0)\n  dup1\n  dataOffset(sub_0)\n  0x00\n  codecopy\n  0x00\n  return\nstop\n\nsub_0: assembly {\n        /* \"Stake.sol\":7191:9783  contract Stake {... */\n      mstore(0x40, 0x80)\n      callvalue\n      dup1\n      iszero\n      tag_1\n      jumpi\n      0x00\n      dup1\n      revert\n    tag_1:\n      pop\n      jumpi(tag_2, lt(calldatasize, 0x04))\n      shr(0xe0, calldataload(0x00))\n      dup1\n      0x862f62b4\n      gt\n      tag_13\n      jumpi\n      dup1\n      0x862f62b4\n      eq\n      tag_8\n      jumpi\n      dup1\n      0x8a31d976\n      eq\n      tag_9\n      jumpi\n      dup1\n      0x9168ae72\n      eq\n      tag_10\n      jumpi\n      dup1\n      0xa694fc3a\n      eq\n      tag_11\n      jumpi\n      dup1\n      0xe88dc5b7\n      eq\n      tag_12\n      jumpi\n      jump(tag_2)\n    tag_13:\n      dup1\n      0x224882a8\n      eq\n      tag_3\n      jumpi\n      dup1\n      0x372500ab\n      eq\n      tag_4\n      jumpi\n      dup1\n      0x5d471b74\n      eq\n      tag_5\n      jumpi\n      dup1\n      0x631b8ad3\n      eq\n      tag_6\n      jumpi\n      dup1\n      0x7b0a47ee\n      eq\n      tag_7\n      jumpi\n    tag_2:\n      0x00\n      dup1\n      revert\n        /* \"Stake.sol\":7950:8063  function returnBalanceHJK() public view returns (uint256) {... */\n    tag_3:\n      tag_14\n      tag_15\n      jump\t// in\n    tag_14:\n      mload(0x40)\n      tag_16\n      swap2\n      swap1\n      tag_17\n      jump\t// in\n    tag_16:\n      mload(0x40)\n      dup1\n      swap2\n      sub\n      swap1\n      return\n        /* \"Stake.sol\":9505:9780  function claimRewards() external updateData(msg.sender) {... */\n    tag_4:\n      tag_18\n      tag_19\n      jump\t// in\n    tag_18:\n      stop\n        /* \"Stake.sol\":7473:7528  mapping(address => uint) public rewardAcumulatedPerUser */\n    tag_5:\n      tag_20\n      0x04\n      dup1\n      calldatasize\n      sub\n      dup2\n      add\n      swap1\n      tag_21\n      swap2\n      swap1\n      tag_22\n      jump\t// in\n    tag_21:\n      tag_23\n      jump\t// in\n    tag_20:\n      mload(0x40)\n      tag_24\n      swap2\n      swap1\n      tag_17\n      jump\t// in\n    tag_24:\n      mload(0x40)\n      dup1\n      swap2\n      sub\n      swap1\n      return\n        /* \"Stake.sol\":7314:7343  uint public totalSupplyStaked */\n    tag_6:\n      tag_25\n      tag_26\n      jump\t// in\n    tag_25:\n      mload(0x40)\n      tag_27\n      swap2\n      swap1\n      tag_17\n      jump\t// in\n    tag_27:\n      mload(0x40)\n      dup1\n      swap2\n      sub\n      swap1\n      return\n        /* \"Stake.sol\":7535:7570  uint public constant rewardRate = 2 */\n    tag_7:\n      tag_28\n      tag_29\n      jump\t// in\n    tag_28:\n      mload(0x40)\n      tag_30\n      swap2\n      swap1\n      tag_17\n      jump\t// in\n    tag_30:\n      mload(0x40)\n      dup1\n      swap2\n      sub\n      swap1\n      return\n        /* \"Stake.sol\":8686:8964  function unstaked(uint _amount) updateData(msg.sender) external {... */\n    tag_8:\n      tag_31\n      0x04\n      dup1\n      calldatasize\n      sub\n      dup2\n      add\n      swap1\n      tag_32\n      swap2\n      swap1\n      tag_33\n      jump\t// in\n    tag_32:\n      tag_34\n      jump\t// in\n    tag_31:\n      stop\n        /* \"Stake.sol\":8995:9476  function policyRewardsperToken(address staker) public view returns(uint) {... */\n    tag_9:\n      tag_35\n      0x04\n      dup1\n      calldatasize\n      sub\n      dup2\n      add\n      swap1\n      tag_36\n      swap2\n      swap1\n      tag_22\n      jump\t// in\n    tag_36:\n      tag_37\n      jump\t// in\n    tag_35:\n      mload(0x40)\n      tag_38\n      swap2\n      swap1\n      tag_17\n      jump\t// in\n    tag_38:\n      mload(0x40)\n      dup1\n      swap2\n      sub\n      swap1\n      return\n        /* \"Stake.sol\":7268:7307  mapping(address => uint) public stakers */\n    tag_10:\n      tag_39\n      0x04\n      dup1\n      calldatasize\n      sub\n      dup2\n      add\n      swap1\n      tag_40\n      swap2\n      swap1\n      tag_22\n      jump\t// in\n    tag_40:\n      tag_41\n      jump\t// in\n    tag_39:\n      mload(0x40)\n      tag_42\n      swap2\n      swap1\n      tag_17\n      jump\t// in\n    tag_42:\n      mload(0x40)\n      dup1\n      swap2\n      sub\n      swap1\n      return\n        /* \"Stake.sol\":8293:8661  function stake(uint256 _amount) external updateData(msg.sender) moreThen0 {... */\n    tag_11:\n      tag_43\n      0x04\n      dup1\n      calldatasize\n      sub\n      dup2\n      add\n      swap1\n      tag_44\n      swap2\n      swap1\n      tag_33\n      jump\t// in\n    tag_44:\n      tag_45\n      jump\t// in\n    tag_43:\n      stop\n        /* \"Stake.sol\":7591:7629  uint public constant rewardPeriod = 30 */\n    tag_12:\n      tag_46\n      tag_47\n      jump\t// in\n    tag_46:\n      mload(0x40)\n      tag_48\n      swap2\n      swap1\n      tag_17\n      jump\t// in\n    tag_48:\n      mload(0x40)\n      dup1\n      swap2\n      sub\n      swap1\n      return\n        /* \"Stake.sol\":7950:8063  function returnBalanceHJK() public view returns (uint256) {... */\n    tag_15:\n        /* \"Stake.sol\":7999:8006  uint256 */\n      0x00\n        /* \"Stake.sol\":8026:8033  mytoken */\n      dup1\n      0x00\n      swap1\n      sload\n      swap1\n      0x0100\n      exp\n      swap1\n      div\n      0xffffffffffffffffffffffffffffffffffffffff\n      and\n        /* \"Stake.sol\":8026:8043  mytoken.balanceOf */\n      0xffffffffffffffffffffffffffffffffffffffff\n      and\n      0x70a08231\n        /* \"Stake.sol\":8044:8054  msg.sender */\n      caller\n        /* \"Stake.sol\":8026:8055  mytoken.balanceOf(msg.sender) */\n      mload(0x40)\n      dup3\n      0xffffffff\n      and\n      0xe0\n      shl\n      dup2\n      mstore\n      0x04\n      add\n      tag_50\n      swap2\n      swap1\n      tag_51\n      jump\t// in\n    tag_50:\n      0x20\n      mload(0x40)\n      dup1\n      dup4\n      sub\n      dup2\n      dup7\n      gas\n      staticcall\n      iszero\n      dup1\n      iszero\n      tag_53\n      jumpi\n      returndatasize\n      0x00\n      dup1\n      returndatacopy\n      revert(0x00, returndatasize)\n    tag_53:\n      pop\n      pop\n      pop\n      pop\n      mload(0x40)\n      returndatasize\n      not(0x1f)\n      0x1f\n      dup3\n      add\n      and\n      dup3\n      add\n      dup1\n      0x40\n      mstore\n      pop\n      dup2\n      add\n      swap1\n      tag_54\n      swap2\n      swap1\n      tag_55\n      jump\t// in\n    tag_54:\n        /* \"Stake.sol\":8019:8055  return mytoken.balanceOf(msg.sender) */\n      swap1\n      pop\n        /* \"Stake.sol\":7950:8063  function returnBalanceHJK() public view returns (uint256) {... */\n      swap1\n      jump\t// out\n        /* \"Stake.sol\":9505:9780  function claimRewards() external updateData(msg.sender) {... */\n    tag_19:\n        /* \"Stake.sol\":9549:9559  msg.sender */\n      caller\n        /* \"Stake.sol\":7776:7787  uint reward */\n      0x00\n        /* \"Stake.sol\":7790:7819  policyRewardsperToken(staker) */\n      tag_57\n        /* \"Stake.sol\":7812:7818  staker */\n      dup3\n        /* \"Stake.sol\":7790:7811  policyRewardsperToken */\n      tag_37\n        /* \"Stake.sol\":7790:7819  policyRewardsperToken(staker) */\n      jump\t// in\n    tag_57:\n        /* \"Stake.sol\":7776:7819  uint reward = policyRewardsperToken(staker) */\n      swap1\n      pop\n        /* \"Stake.sol\":7865:7871  reward */\n      dup1\n        /* \"Stake.sol\":7830:7853  rewardAcumulatedPerUser */\n      0x04\n        /* \"Stake.sol\":7830:7861  rewardAcumulatedPerUser[staker] */\n      0x00\n        /* \"Stake.sol\":7854:7860  staker */\n      dup5\n        /* \"Stake.sol\":7830:7861  rewardAcumulatedPerUser[staker] */\n      0xffffffffffffffffffffffffffffffffffffffff\n      and\n      0xffffffffffffffffffffffffffffffffffffffff\n      and\n      dup2\n      mstore\n      0x20\n      add\n      swap1\n      dup2\n      mstore\n      0x20\n      add\n      0x00\n      keccak256\n      0x00\n        /* \"Stake.sol\":7830:7871  rewardAcumulatedPerUser[staker] += reward */\n      dup3\n      dup3\n      sload\n      tag_58\n      swap2\n      swap1\n      tag_59\n      jump\t// in\n    tag_58:\n      swap3\n      pop\n      pop\n      dup2\n      swap1\n      sstore\n      pop\n        /* \"Stake.sol\":7907:7922  block.timestamp */\n      timestamp\n        /* \"Stake.sol\":7882:7896  lastUpdateTime */\n      0x03\n        /* \"Stake.sol\":7882:7904  lastUpdateTime[staker] */\n      0x00\n        /* \"Stake.sol\":7897:7903  staker */\n      dup5\n        /* \"Stake.sol\":7882:7904  lastUpdateTime[staker] */\n      0xffffffffffffffffffffffffffffffffffffffff\n      and\n      0xffffffffffffffffffffffffffffffffffffffff\n      and\n      dup2\n      mstore\n      0x20\n      add\n      swap1\n      dup2\n      mstore\n      0x20\n      add\n      0x00\n      keccak256\n        /* \"Stake.sol\":7882:7922  lastUpdateTime[staker] = block.timestamp */\n      dup2\n      swap1\n      sstore\n      pop\n        /* \"Stake.sol\":9572:9583  uint reward */\n      0x00\n        /* \"Stake.sol\":9586:9609  rewardAcumulatedPerUser */\n      0x04\n        /* \"Stake.sol\":9586:9621  rewardAcumulatedPerUser[msg.sender] */\n      0x00\n        /* \"Stake.sol\":9610:9620  msg.sender */\n      caller\n        /* \"Stake.sol\":9586:9621  rewardAcumulatedPerUser[msg.sender] */\n      0xffffffffffffffffffffffffffffffffffffffff\n      and\n      0xffffffffffffffffffffffffffffffffffffffff\n      and\n      dup2\n      mstore\n      0x20\n      add\n      swap1\n      dup2\n      mstore\n      0x20\n      add\n      0x00\n      keccak256\n      sload\n        /* \"Stake.sol\":9572:9621  uint reward = rewardAcumulatedPerUser[msg.sender] */\n      swap1\n      pop\n        /* \"Stake.sol\":9649:9650  0 */\n      0x00\n        /* \"Stake.sol\":9640:9646  reward */\n      dup2\n        /* \"Stake.sol\":9640:9650  reward > 0 */\n      gt\n        /* \"Stake.sol\":9632:9675  require(reward > 0, \"No rewards available\") */\n      tag_61\n      jumpi\n      mload(0x40)\n      0x08c379a000000000000000000000000000000000000000000000000000000000\n      dup2\n      mstore\n      0x04\n      add\n      tag_62\n      swap1\n      tag_63\n      jump\t// in\n    tag_62:\n      mload(0x40)\n      dup1\n      swap2\n      sub\n      swap1\n      revert\n    tag_61:\n        /* \"Stake.sol\":9724:9725  0 */\n      0x00\n        /* \"Stake.sol\":9686:9709  rewardAcumulatedPerUser */\n      0x04\n        /* \"Stake.sol\":9686:9721  rewardAcumulatedPerUser[msg.sender] */\n      0x00\n        /* \"Stake.sol\":9710:9720  msg.sender */\n      caller\n        /* \"Stake.sol\":9686:9721  rewardAcumulatedPerUser[msg.sender] */\n      0xffffffffffffffffffffffffffffffffffffffff\n      and\n      0xffffffffffffffffffffffffffffffffffffffff\n      and\n      dup2\n      mstore\n      0x20\n      add\n      swap1\n      dup2\n      mstore\n      0x20\n      add\n      0x00\n      keccak256\n        /* \"Stake.sol\":9686:9725  rewardAcumulatedPerUser[msg.sender] = 0 */\n      dup2\n      swap1\n      sstore\n      pop\n        /* \"Stake.sol\":9736:9743  mytoken */\n      0x00\n      dup1\n      sload\n      swap1\n      0x0100\n      exp\n      swap1\n      div\n      0xffffffffffffffffffffffffffffffffffffffff\n      and\n        /* \"Stake.sol\":9736:9752  mytoken.transfer */\n      0xffffffffffffffffffffffffffffffffffffffff\n      and\n      0xa9059cbb\n        /* \"Stake.sol\":9753:9763  msg.sender */\n      caller\n        /* \"Stake.sol\":9765:9771  reward */\n      dup4\n        /* \"Stake.sol\":9736:9772  mytoken.transfer(msg.sender, reward) */\n      mload(0x40)\n      dup4\n      0xffffffff\n      and\n      0xe0\n      shl\n      dup2\n      mstore\n      0x04\n      add\n      tag_64\n      swap3\n      swap2\n      swap1\n      tag_65\n      jump\t// in\n    tag_64:\n      0x20\n      mload(0x40)\n      dup1\n      dup4\n      sub\n      dup2\n      0x00\n      dup8\n      gas\n      call\n      iszero\n      dup1\n      iszero\n      tag_67\n      jumpi\n      returndatasize\n      0x00\n      dup1\n      returndatacopy\n      revert(0x00, returndatasize)\n    tag_67:\n      pop\n      pop\n      pop\n      pop\n      mload(0x40)\n      returndatasize\n      not(0x1f)\n      0x1f\n      dup3\n      add\n      and\n      dup3\n      add\n      dup1\n      0x40\n      mstore\n      pop\n      dup2\n      add\n      swap1\n      tag_68\n      swap2\n      swap1\n      tag_69\n      jump\t// in\n    tag_68:\n      pop\n        /* \"Stake.sol\":9561:9780  {... */\n      pop\n        /* \"Stake.sol\":7765:7942  {... */\n      pop\n        /* \"Stake.sol\":9505:9780  function claimRewards() external updateData(msg.sender) {... */\n      pop\n      jump\t// out\n        /* \"Stake.sol\":7473:7528  mapping(address => uint) public rewardAcumulatedPerUser */\n    tag_23:\n      mstore(0x20, 0x04)\n      dup1\n      0x00\n      mstore\n      keccak256(0x00, 0x40)\n      0x00\n      swap2\n      pop\n      swap1\n      pop\n      sload\n      dup2\n      jump\t// out\n        /* \"Stake.sol\":7314:7343  uint public totalSupplyStaked */\n    tag_26:\n      sload(0x02)\n      dup2\n      jump\t// out\n        /* \"Stake.sol\":7535:7570  uint public constant rewardRate = 2 */\n    tag_29:\n        /* \"Stake.sol\":7569:7570  2 */\n      0x02\n        /* \"Stake.sol\":7535:7570  uint public constant rewardRate = 2 */\n      dup2\n      jump\t// out\n        /* \"Stake.sol\":8686:8964  function unstaked(uint _amount) updateData(msg.sender) external {... */\n    tag_34:\n        /* \"Stake.sol\":8729:8739  msg.sender */\n      caller\n        /* \"Stake.sol\":7776:7787  uint reward */\n      0x00\n        /* \"Stake.sol\":7790:7819  policyRewardsperToken(staker) */\n      tag_71\n        /* \"Stake.sol\":7812:7818  staker */\n      dup3\n        /* \"Stake.sol\":7790:7811  policyRewardsperToken */\n      tag_37\n        /* \"Stake.sol\":7790:7819  policyRewardsperToken(staker) */\n      jump\t// in\n    tag_71:\n        /* \"Stake.sol\":7776:7819  uint reward = policyRewardsperToken(staker) */\n      swap1\n      pop\n        /* \"Stake.sol\":7865:7871  reward */\n      dup1\n        /* \"Stake.sol\":7830:7853  rewardAcumulatedPerUser */\n      0x04\n        /* \"Stake.sol\":7830:7861  rewardAcumulatedPerUser[staker] */\n      0x00\n        /* \"Stake.sol\":7854:7860  staker */\n      dup5\n        /* \"Stake.sol\":7830:7861  rewardAcumulatedPerUser[staker] */\n      0xffffffffffffffffffffffffffffffffffffffff\n      and\n      0xffffffffffffffffffffffffffffffffffffffff\n      and\n      dup2\n      mstore\n      0x20\n      add\n      swap1\n      dup2\n      mstore\n      0x20\n      add\n      0x00\n      keccak256\n      0x00\n        /* \"Stake.sol\":7830:7871  rewardAcumulatedPerUser[staker] += reward */\n      dup3\n      dup3\n      sload\n      tag_72\n      swap2\n      swap1\n      tag_59\n      jump\t// in\n    tag_72:\n      swap3\n      pop\n      pop\n      dup2\n      swap1\n      sstore\n      pop\n        /* \"Stake.sol\":7907:7922  block.timestamp */\n      timestamp\n        /* \"Stake.sol\":7882:7896  lastUpdateTime */\n      0x03\n        /* \"Stake.sol\":7882:7904  lastUpdateTime[staker] */\n      0x00\n        /* \"Stake.sol\":7897:7903  staker */\n      dup5\n        /* \"Stake.sol\":7882:7904  lastUpdateTime[staker] */\n      0xffffffffffffffffffffffffffffffffffffffff\n      and\n      0xffffffffffffffffffffffffffffffffffffffff\n      and\n      dup2\n      mstore\n      0x20\n      add\n      swap1\n      dup2\n      mstore\n      0x20\n      add\n      0x00\n      keccak256\n        /* \"Stake.sol\":7882:7922  lastUpdateTime[staker] = block.timestamp */\n      dup2\n      swap1\n      sstore\n      pop\n        /* \"Stake.sol\":8792:8799  _amount */\n      dup3\n        /* \"Stake.sol\":8769:8776  stakers */\n      0x01\n        /* \"Stake.sol\":8769:8788  stakers[msg.sender] */\n      0x00\n        /* \"Stake.sol\":8777:8787  msg.sender */\n      caller\n        /* \"Stake.sol\":8769:8788  stakers[msg.sender] */\n      0xffffffffffffffffffffffffffffffffffffffff\n      and\n      0xffffffffffffffffffffffffffffffffffffffff\n      and\n      dup2\n      mstore\n      0x20\n      add\n      swap1\n      dup2\n      mstore\n      0x20\n      add\n      0x00\n      keccak256\n      sload\n        /* \"Stake.sol\":8769:8799  stakers[msg.sender] >= _amount */\n      lt\n      iszero\n        /* \"Stake.sol\":8761:8828  require(stakers[msg.sender] >= _amount, \"Withdraw__TransferFailed\") */\n      tag_74\n      jumpi\n      mload(0x40)\n      0x08c379a000000000000000000000000000000000000000000000000000000000\n      dup2\n      mstore\n      0x04\n      add\n      tag_75\n      swap1\n      tag_76\n      jump\t// in\n    tag_75:\n      mload(0x40)\n      dup1\n      swap2\n      sub\n      swap1\n      revert\n    tag_74:\n        /* \"Stake.sol\":8862:8869  _amount */\n      dup3\n        /* \"Stake.sol\":8839:8846  stakers */\n      0x01\n        /* \"Stake.sol\":8839:8858  stakers[msg.sender] */\n      0x00\n        /* \"Stake.sol\":8847:8857  msg.sender */\n      caller\n        /* \"Stake.sol\":8839:8858  stakers[msg.sender] */\n      0xffffffffffffffffffffffffffffffffffffffff\n      and\n      0xffffffffffffffffffffffffffffffffffffffff\n      and\n      dup2\n      mstore\n      0x20\n      add\n      swap1\n      dup2\n      mstore\n      0x20\n      add\n      0x00\n      keccak256\n      0x00\n        /* \"Stake.sol\":8839:8869  stakers[msg.sender] -= _amount */\n      dup3\n      dup3\n      sload\n      tag_77\n      swap2\n      swap1\n      tag_78\n      jump\t// in\n    tag_77:\n      swap3\n      pop\n      pop\n      dup2\n      swap1\n      sstore\n      pop\n        /* \"Stake.sol\":8901:8908  _amount */\n      dup3\n        /* \"Stake.sol\":8880:8897  totalSupplyStaked */\n      0x02\n      0x00\n        /* \"Stake.sol\":8880:8908  totalSupplyStaked -= _amount */\n      dup3\n      dup3\n      sload\n      tag_79\n      swap2\n      swap1\n      tag_78\n      jump\t// in\n    tag_79:\n      swap3\n      pop\n      pop\n      dup2\n      swap1\n      sstore\n      pop\n        /* \"Stake.sol\":8919:8926  mytoken */\n      0x00\n      dup1\n      sload\n      swap1\n      0x0100\n      exp\n      swap1\n      div\n      0xffffffffffffffffffffffffffffffffffffffff\n      and\n        /* \"Stake.sol\":8919:8935  mytoken.transfer */\n      0xffffffffffffffffffffffffffffffffffffffff\n      and\n      0xa9059cbb\n        /* \"Stake.sol\":8936:8946  msg.sender */\n      caller\n        /* \"Stake.sol\":8948:8955  _amount */\n      dup6\n        /* \"Stake.sol\":8919:8956  mytoken.transfer(msg.sender, _amount) */\n      mload(0x40)\n      dup4\n      0xffffffff\n      and\n      0xe0\n      shl\n      dup2\n      mstore\n      0x04\n      add\n      tag_80\n      swap3\n      swap2\n      swap1\n      tag_65\n      jump\t// in\n    tag_80:\n      0x20\n      mload(0x40)\n      dup1\n      dup4\n      sub\n      dup2\n      0x00\n      dup8\n      gas\n      call\n      iszero\n      dup1\n      iszero\n      tag_82\n      jumpi\n      returndatasize\n      0x00\n      dup1\n      returndatacopy\n      revert(0x00, returndatasize)\n    tag_82:\n      pop\n      pop\n      pop\n      pop\n      mload(0x40)\n      returndatasize\n      not(0x1f)\n      0x1f\n      dup3\n      add\n      and\n      dup3\n      add\n      dup1\n      0x40\n      mstore\n      pop\n      dup2\n      add\n      swap1\n      tag_83\n      swap2\n      swap1\n      tag_69\n      jump\t// in\n    tag_83:\n      pop\n        /* \"Stake.sol\":7765:7942  {... */\n      pop\n        /* \"Stake.sol\":8686:8964  function unstaked(uint _amount) updateData(msg.sender) external {... */\n      pop\n      pop\n      jump\t// out\n        /* \"Stake.sol\":8995:9476  function policyRewardsperToken(address staker) public view returns(uint) {... */\n    tag_37:\n        /* \"Stake.sol\":9062:9066  uint */\n      0x00\n        /* \"Stake.sol\":9102:9103  0 */\n      dup1\n        /* \"Stake.sol\":9083:9090  stakers */\n      0x01\n        /* \"Stake.sol\":9083:9098  stakers[staker] */\n      0x00\n        /* \"Stake.sol\":9091:9097  staker */\n      dup5\n        /* \"Stake.sol\":9083:9098  stakers[staker] */\n      0xffffffffffffffffffffffffffffffffffffffff\n      and\n      0xffffffffffffffffffffffffffffffffffffffff\n      and\n      dup2\n      mstore\n      0x20\n      add\n      swap1\n      dup2\n      mstore\n      0x20\n      add\n      0x00\n      keccak256\n      sload\n        /* \"Stake.sol\":9083:9103  stakers[staker] == 0 */\n      sub\n        /* \"Stake.sol\":9079:9468  if (stakers[staker] == 0) {... */\n      tag_85\n      jumpi\n        /* \"Stake.sol\":9127:9150  rewardAcumulatedPerUser */\n      0x04\n        /* \"Stake.sol\":9127:9158  rewardAcumulatedPerUser[staker] */\n      0x00\n        /* \"Stake.sol\":9151:9157  staker */\n      dup4\n        /* \"Stake.sol\":9127:9158  rewardAcumulatedPerUser[staker] */\n      0xffffffffffffffffffffffffffffffffffffffff\n      and\n      0xffffffffffffffffffffffffffffffffffffffff\n      and\n      dup2\n      mstore\n      0x20\n      add\n      swap1\n      dup2\n      mstore\n      0x20\n      add\n      0x00\n      keccak256\n      sload\n        /* \"Stake.sol\":9120:9158  return rewardAcumulatedPerUser[staker] */\n      swap1\n      pop\n      jump(tag_84)\n        /* \"Stake.sol\":9079:9468  if (stakers[staker] == 0) {... */\n    tag_85:\n        /* \"Stake.sol\":9191:9210  uint currentBalance */\n      0x00\n        /* \"Stake.sol\":9213:9220  stakers */\n      0x01\n        /* \"Stake.sol\":9213:9228  stakers[staker] */\n      0x00\n        /* \"Stake.sol\":9221:9227  staker */\n      dup5\n        /* \"Stake.sol\":9213:9228  stakers[staker] */\n      0xffffffffffffffffffffffffffffffffffffffff\n      and\n      0xffffffffffffffffffffffffffffffffffffffff\n      and\n      dup2\n      mstore\n      0x20\n      add\n      swap1\n      dup2\n      mstore\n      0x20\n      add\n      0x00\n      keccak256\n      sload\n        /* \"Stake.sol\":9191:9228  uint currentBalance = stakers[staker] */\n      swap1\n      pop\n        /* \"Stake.sol\":9244:9259  uint timeStaked */\n      0x00\n        /* \"Stake.sol\":9280:9294  lastUpdateTime */\n      0x03\n        /* \"Stake.sol\":9280:9302  lastUpdateTime[staker] */\n      0x00\n        /* \"Stake.sol\":9295:9301  staker */\n      dup6\n        /* \"Stake.sol\":9280:9302  lastUpdateTime[staker] */\n      0xffffffffffffffffffffffffffffffffffffffff\n      and\n      0xffffffffffffffffffffffffffffffffffffffff\n      and\n      dup2\n      mstore\n      0x20\n      add\n      swap1\n      dup2\n      mstore\n      0x20\n      add\n      0x00\n      keccak256\n      sload\n        /* \"Stake.sol\":9262:9277  block.timestamp */\n      timestamp\n        /* \"Stake.sol\":9262:9302  block.timestamp - lastUpdateTime[staker] */\n      tag_87\n      swap2\n      swap1\n      tag_78\n      jump\t// in\n    tag_87:\n        /* \"Stake.sol\":9244:9302  uint timeStaked = block.timestamp - lastUpdateTime[staker] */\n      swap1\n      pop\n        /* \"Stake.sol\":9337:9353  uint totalReward */\n      0x00\n        /* \"Stake.sol\":7627:7629  30 */\n      0x1e\n        /* \"Stake.sol\":9395:9405  timeStaked */\n      dup3\n        /* \"Stake.sol\":9395:9420  timeStaked / rewardPeriod */\n      tag_88\n      swap2\n      swap1\n      tag_89\n      jump\t// in\n    tag_88:\n        /* \"Stake.sol\":9387:9390  100 */\n      0x64\n        /* \"Stake.sol\":7569:7570  2 */\n      0x02\n        /* \"Stake.sol\":9357:9371  currentBalance */\n      dup6\n        /* \"Stake.sol\":9357:9384  currentBalance * rewardRate */\n      tag_90\n      swap2\n      swap1\n      tag_91\n      jump\t// in\n    tag_90:\n        /* \"Stake.sol\":9357:9390  currentBalance * rewardRate / 100 */\n      tag_92\n      swap2\n      swap1\n      tag_89\n      jump\t// in\n    tag_92:\n        /* \"Stake.sol\":9356:9421  (currentBalance * rewardRate / 100) * (timeStaked / rewardPeriod) */\n      tag_93\n      swap2\n      swap1\n      tag_91\n      jump\t// in\n    tag_93:\n        /* \"Stake.sol\":9337:9421  uint totalReward = (currentBalance * rewardRate / 100) * (timeStaked / rewardPeriod) */\n      swap1\n      pop\n        /* \"Stake.sol\":9445:9456  totalReward */\n      dup1\n        /* \"Stake.sol\":9438:9456  return totalReward */\n      swap4\n      pop\n      pop\n      pop\n      pop\n        /* \"Stake.sol\":8995:9476  function policyRewardsperToken(address staker) public view returns(uint) {... */\n    tag_84:\n      swap2\n      swap1\n      pop\n      jump\t// out\n        /* \"Stake.sol\":7268:7307  mapping(address => uint) public stakers */\n    tag_41:\n      mstore(0x20, 0x01)\n      dup1\n      0x00\n      mstore\n      keccak256(0x00, 0x40)\n      0x00\n      swap2\n      pop\n      swap1\n      pop\n      sload\n      dup2\n      jump\t// out\n        /* \"Stake.sol\":8293:8661  function stake(uint256 _amount) external updateData(msg.sender) moreThen0 {... */\n    tag_45:\n        /* \"Stake.sol\":8345:8355  msg.sender */\n      caller\n        /* \"Stake.sol\":7776:7787  uint reward */\n      0x00\n        /* \"Stake.sol\":7790:7819  policyRewardsperToken(staker) */\n      tag_95\n        /* \"Stake.sol\":7812:7818  staker */\n      dup3\n        /* \"Stake.sol\":7790:7811  policyRewardsperToken */\n      tag_37\n        /* \"Stake.sol\":7790:7819  policyRewardsperToken(staker) */\n      jump\t// in\n    tag_95:\n        /* \"Stake.sol\":7776:7819  uint reward = policyRewardsperToken(staker) */\n      swap1\n      pop\n        /* \"Stake.sol\":7865:7871  reward */\n      dup1\n        /* \"Stake.sol\":7830:7853  rewardAcumulatedPerUser */\n      0x04\n        /* \"Stake.sol\":7830:7861  rewardAcumulatedPerUser[staker] */\n      0x00\n        /* \"Stake.sol\":7854:7860  staker */\n      dup5\n        /* \"Stake.sol\":7830:7861  rewardAcumulatedPerUser[staker] */\n      0xffffffffffffffffffffffffffffffffffffffff\n      and\n      0xffffffffffffffffffffffffffffffffffffffff\n      and\n      dup2\n      mstore\n      0x20\n      add\n      swap1\n      dup2\n      mstore\n      0x20\n      add\n      0x00\n      keccak256\n      0x00\n        /* \"Stake.sol\":7830:7871  rewardAcumulatedPerUser[staker] += reward */\n      dup3\n      dup3\n      sload\n      tag_96\n      swap2\n      swap1\n      tag_59\n      jump\t// in\n    tag_96:\n      swap3\n      pop\n      pop\n      dup2\n      swap1\n      sstore\n      pop\n        /* \"Stake.sol\":7907:7922  block.timestamp */\n      timestamp\n        /* \"Stake.sol\":7882:7896  lastUpdateTime */\n      0x03\n        /* \"Stake.sol\":7882:7904  lastUpdateTime[staker] */\n      0x00\n        /* \"Stake.sol\":7897:7903  staker */\n      dup5\n        /* \"Stake.sol\":7882:7904  lastUpdateTime[staker] */\n      0xffffffffffffffffffffffffffffffffffffffff\n      and\n      0xffffffffffffffffffffffffffffffffffffffff\n      and\n      dup2\n      mstore\n      0x20\n      add\n      swap1\n      dup2\n      mstore\n      0x20\n      add\n      0x00\n      keccak256\n        /* \"Stake.sol\":7882:7922  lastUpdateTime[staker] = block.timestamp */\n      dup2\n      swap1\n      sstore\n      pop\n        /* \"Stake.sol\":8187:8188  0 */\n      0x00\n        /* \"Stake.sol\":8165:8183  returnBalanceHJK() */\n      tag_98\n        /* \"Stake.sol\":8165:8181  returnBalanceHJK */\n      tag_15\n        /* \"Stake.sol\":8165:8183  returnBalanceHJK() */\n      jump\t// in\n    tag_98:\n        /* \"Stake.sol\":8165:8188  returnBalanceHJK() == 0 */\n      sub\n        /* \"Stake.sol\":8161:8252  if (returnBalanceHJK() == 0) {... */\n      tag_99\n      jumpi\n        /* \"Stake.sol\":8212:8240  Staking__NeedsMoreThanZero() */\n      mload(0x40)\n      0x9b677fa000000000000000000000000000000000000000000000000000000000\n      dup2\n      mstore\n      0x04\n      add\n      mload(0x40)\n      dup1\n      swap2\n      sub\n      swap1\n      revert\n        /* \"Stake.sol\":8161:8252  if (returnBalanceHJK() == 0) {... */\n    tag_99:\n        /* \"Stake.sol\":8433:8440  _amount */\n      dup3\n        /* \"Stake.sol\":8400:8407  mytoken */\n      0x00\n      dup1\n      sload\n      swap1\n      0x0100\n      exp\n      swap1\n      div\n      0xffffffffffffffffffffffffffffffffffffffff\n      and\n        /* \"Stake.sol\":8400:8417  mytoken.balanceOf */\n      0xffffffffffffffffffffffffffffffffffffffff\n      and\n      0x70a08231\n        /* \"Stake.sol\":8418:8428  msg.sender */\n      caller\n        /* \"Stake.sol\":8400:8429  mytoken.balanceOf(msg.sender) */\n      mload(0x40)\n      dup3\n      0xffffffff\n      and\n      0xe0\n      shl\n      dup2\n      mstore\n      0x04\n      add\n      tag_101\n      swap2\n      swap1\n      tag_51\n      jump\t// in\n    tag_101:\n      0x20\n      mload(0x40)\n      dup1\n      dup4\n      sub\n      dup2\n      dup7\n      gas\n      staticcall\n      iszero\n      dup1\n      iszero\n      tag_103\n      jumpi\n      returndatasize\n      0x00\n      dup1\n      returndatacopy\n      revert(0x00, returndatasize)\n    tag_103:\n      pop\n      pop\n      pop\n      pop\n      mload(0x40)\n      returndatasize\n      not(0x1f)\n      0x1f\n      dup3\n      add\n      and\n      dup3\n      add\n      dup1\n      0x40\n      mstore\n      pop\n      dup2\n      add\n      swap1\n      tag_104\n      swap2\n      swap1\n      tag_55\n      jump\t// in\n    tag_104:\n        /* \"Stake.sol\":8400:8440  mytoken.balanceOf(msg.sender) >= _amount */\n      lt\n      iszero\n        /* \"Stake.sol\":8378:8504  require(... */\n      tag_105\n      jumpi\n      mload(0x40)\n      0x08c379a000000000000000000000000000000000000000000000000000000000\n      dup2\n      mstore\n      0x04\n      add\n      tag_106\n      swap1\n      tag_107\n      jump\t// in\n    tag_106:\n      mload(0x40)\n      dup1\n      swap2\n      sub\n      swap1\n      revert\n    tag_105:\n        /* \"Stake.sol\":8540:8547  _amount */\n      dup3\n        /* \"Stake.sol\":8517:8524  stakers */\n      0x01\n        /* \"Stake.sol\":8517:8536  stakers[msg.sender] */\n      0x00\n        /* \"Stake.sol\":8525:8535  msg.sender */\n      caller\n        /* \"Stake.sol\":8517:8536  stakers[msg.sender] */\n      0xffffffffffffffffffffffffffffffffffffffff\n      and\n      0xffffffffffffffffffffffffffffffffffffffff\n      and\n      dup2\n      mstore\n      0x20\n      add\n      swap1\n      dup2\n      mstore\n      0x20\n      add\n      0x00\n      keccak256\n      0x00\n        /* \"Stake.sol\":8517:8547  stakers[msg.sender] += _amount */\n      dup3\n      dup3\n      sload\n      tag_108\n      swap2\n      swap1\n      tag_59\n      jump\t// in\n    tag_108:\n      swap3\n      pop\n      pop\n      dup2\n      swap1\n      sstore\n      pop\n        /* \"Stake.sol\":8579:8586  _amount */\n      dup3\n        /* \"Stake.sol\":8558:8575  totalSupplyStaked */\n      0x02\n      0x00\n        /* \"Stake.sol\":8558:8586  totalSupplyStaked += _amount */\n      dup3\n      dup3\n      sload\n      tag_109\n      swap2\n      swap1\n      tag_59\n      jump\t// in\n    tag_109:\n      swap3\n      pop\n      pop\n      dup2\n      swap1\n      sstore\n      pop\n        /* \"Stake.sol\":8597:8604  mytoken */\n      0x00\n      dup1\n      sload\n      swap1\n      0x0100\n      exp\n      swap1\n      div\n      0xffffffffffffffffffffffffffffffffffffffff\n      and\n        /* \"Stake.sol\":8597:8617  mytoken.transferFrom */\n      0xffffffffffffffffffffffffffffffffffffffff\n      and\n      0x23b872dd\n        /* \"Stake.sol\":8618:8628  msg.sender */\n      caller\n        /* \"Stake.sol\":8638:8642  this */\n      address\n        /* \"Stake.sol\":8645:8652  _amount */\n      dup7\n        /* \"Stake.sol\":8597:8653  mytoken.transferFrom(msg.sender, address(this), _amount) */\n      mload(0x40)\n      dup5\n      0xffffffff\n      and\n      0xe0\n      shl\n      dup2\n      mstore\n      0x04\n      add\n      tag_110\n      swap4\n      swap3\n      swap2\n      swap1\n      tag_111\n      jump\t// in\n    tag_110:\n      0x20\n      mload(0x40)\n      dup1\n      dup4\n      sub\n      dup2\n      0x00\n      dup8\n      gas\n      call\n      iszero\n      dup1\n      iszero\n      tag_113\n      jumpi\n      returndatasize\n      0x00\n      dup1\n      returndatacopy\n      revert(0x00, returndatasize)\n    tag_113:\n      pop\n      pop\n      pop\n      pop\n      mload(0x40)\n      returndatasize\n      not(0x1f)\n      0x1f\n      dup3\n      add\n      and\n      dup3\n      add\n      dup1\n      0x40\n      mstore\n      pop\n      dup2\n      add\n      swap1\n      tag_114\n      swap2\n      swap1\n      tag_69\n      jump\t// in\n    tag_114:\n      pop\n        /* \"Stake.sol\":7765:7942  {... */\n      pop\n        /* \"Stake.sol\":8293:8661  function stake(uint256 _amount) external updateData(msg.sender) moreThen0 {... */\n      pop\n      pop\n      jump\t// out\n        /* \"Stake.sol\":7591:7629  uint public constant rewardPeriod = 30 */\n    tag_47:\n        /* \"Stake.sol\":7627:7629  30 */\n      0x1e\n        /* \"Stake.sol\":7591:7629  uint public constant rewardPeriod = 30 */\n      dup2\n      jump\t// out\n        /* \"#utility.yul\":7:84   */\n    tag_115:\n        /* \"#utility.yul\":44:51   */\n      0x00\n        /* \"#utility.yul\":73:78   */\n      dup2\n        /* \"#utility.yul\":62:78   */\n      swap1\n      pop\n        /* \"#utility.yul\":7:84   */\n      swap2\n      swap1\n      pop\n      jump\t// out\n        /* \"#utility.yul\":90:208   */\n    tag_116:\n        /* \"#utility.yul\":177:201   */\n      tag_143\n        /* \"#utility.yul\":195:200   */\n      dup2\n        /* \"#utility.yul\":177:201   */\n      tag_115\n      jump\t// in\n    tag_143:\n        /* \"#utility.yul\":172:175   */\n      dup3\n        /* \"#utility.yul\":165:202   */\n      mstore\n        /* \"#utility.yul\":90:208   */\n      pop\n      pop\n      jump\t// out\n        /* \"#utility.yul\":214:436   */\n    tag_17:\n        /* \"#utility.yul\":307:311   */\n      0x00\n        /* \"#utility.yul\":345:347   */\n      0x20\n        /* \"#utility.yul\":334:343   */\n      dup3\n        /* \"#utility.yul\":330:348   */\n      add\n        /* \"#utility.yul\":322:348   */\n      swap1\n      pop\n        /* \"#utility.yul\":358:429   */\n      tag_145\n        /* \"#utility.yul\":426:427   */\n      0x00\n        /* \"#utility.yul\":415:424   */\n      dup4\n        /* \"#utility.yul\":411:428   */\n      add\n        /* \"#utility.yul\":402:408   */\n      dup5\n        /* \"#utility.yul\":358:429   */\n      tag_116\n      jump\t// in\n    tag_145:\n        /* \"#utility.yul\":214:436   */\n      swap3\n      swap2\n      pop\n      pop\n      jump\t// out\n        /* \"#utility.yul\":523:640   */\n    tag_118:\n        /* \"#utility.yul\":632:633   */\n      0x00\n        /* \"#utility.yul\":629:630   */\n      dup1\n        /* \"#utility.yul\":622:634   */\n      revert\n        /* \"#utility.yul\":769:895   */\n    tag_120:\n        /* \"#utility.yul\":806:813   */\n      0x00\n        /* \"#utility.yul\":846:888   */\n      0xffffffffffffffffffffffffffffffffffffffff\n        /* \"#utility.yul\":839:844   */\n      dup3\n        /* \"#utility.yul\":835:889   */\n      and\n        /* \"#utility.yul\":824:889   */\n      swap1\n      pop\n        /* \"#utility.yul\":769:895   */\n      swap2\n      swap1\n      pop\n      jump\t// out\n        /* \"#utility.yul\":901:997   */\n    tag_121:\n        /* \"#utility.yul\":938:945   */\n      0x00\n        /* \"#utility.yul\":967:991   */\n      tag_151\n        /* \"#utility.yul\":985:990   */\n      dup3\n        /* \"#utility.yul\":967:991   */\n      tag_120\n      jump\t// in\n    tag_151:\n        /* \"#utility.yul\":956:991   */\n      swap1\n      pop\n        /* \"#utility.yul\":901:997   */\n      swap2\n      swap1\n      pop\n      jump\t// out\n        /* \"#utility.yul\":1003:1125   */\n    tag_122:\n        /* \"#utility.yul\":1076:1100   */\n      tag_153\n        /* \"#utility.yul\":1094:1099   */\n      dup2\n        /* \"#utility.yul\":1076:1100   */\n      tag_121\n      jump\t// in\n    tag_153:\n        /* \"#utility.yul\":1069:1074   */\n      dup2\n        /* \"#utility.yul\":1066:1101   */\n      eq\n        /* \"#utility.yul\":1056:1119   */\n      tag_154\n      jumpi\n        /* \"#utility.yul\":1115:1116   */\n      0x00\n        /* \"#utility.yul\":1112:1113   */\n      dup1\n        /* \"#utility.yul\":1105:1117   */\n      revert\n        /* \"#utility.yul\":1056:1119   */\n    tag_154:\n        /* \"#utility.yul\":1003:1125   */\n      pop\n      jump\t// out\n        /* \"#utility.yul\":1131:1270   */\n    tag_123:\n        /* \"#utility.yul\":1177:1182   */\n      0x00\n        /* \"#utility.yul\":1215:1221   */\n      dup2\n        /* \"#utility.yul\":1202:1222   */\n      calldataload\n        /* \"#utility.yul\":1193:1222   */\n      swap1\n      pop\n        /* \"#utility.yul\":1231:1264   */\n      tag_156\n        /* \"#utility.yul\":1258:1263   */\n      dup2\n        /* \"#utility.yul\":1231:1264   */\n      tag_122\n      jump\t// in\n    tag_156:\n        /* \"#utility.yul\":1131:1270   */\n      swap3\n      swap2\n      pop\n      pop\n      jump\t// out\n        /* \"#utility.yul\":1276:1605   */\n    tag_22:\n        /* \"#utility.yul\":1335:1341   */\n      0x00\n        /* \"#utility.yul\":1384:1386   */\n      0x20\n        /* \"#utility.yul\":1372:1381   */\n      dup3\n        /* \"#utility.yul\":1363:1370   */\n      dup5\n        /* \"#utility.yul\":1359:1382   */\n      sub\n        /* \"#utility.yul\":1355:1387   */\n      slt\n        /* \"#utility.yul\":1352:1471   */\n      iszero\n      tag_158\n      jumpi\n        /* \"#utility.yul\":1390:1469   */\n      tag_159\n      tag_118\n      jump\t// in\n    tag_159:\n        /* \"#utility.yul\":1352:1471   */\n    tag_158:\n        /* \"#utility.yul\":1510:1511   */\n      0x00\n        /* \"#utility.yul\":1535:1588   */\n      tag_160\n        /* \"#utility.yul\":1580:1587   */\n      dup5\n        /* \"#utility.yul\":1571:1577   */\n      dup3\n        /* \"#utility.yul\":1560:1569   */\n      dup6\n        /* \"#utility.yul\":1556:1578   */\n      add\n        /* \"#utility.yul\":1535:1588   */\n      tag_123\n      jump\t// in\n    tag_160:\n        /* \"#utility.yul\":1525:1588   */\n      swap2\n      pop\n        /* \"#utility.yul\":1481:1598   */\n      pop\n        /* \"#utility.yul\":1276:1605   */\n      swap3\n      swap2\n      pop\n      pop\n      jump\t// out\n        /* \"#utility.yul\":1611:1733   */\n    tag_124:\n        /* \"#utility.yul\":1684:1708   */\n      tag_162\n        /* \"#utility.yul\":1702:1707   */\n      dup2\n        /* \"#utility.yul\":1684:1708   */\n      tag_115\n      jump\t// in\n    tag_162:\n        /* \"#utility.yul\":1677:1682   */\n      dup2\n        /* \"#utility.yul\":1674:1709   */\n      eq\n        /* \"#utility.yul\":1664:1727   */\n      tag_163\n      jumpi\n        /* \"#utility.yul\":1723:1724   */\n      0x00\n        /* \"#utility.yul\":1720:1721   */\n      dup1\n        /* \"#utility.yul\":1713:1725   */\n      revert\n        /* \"#utility.yul\":1664:1727   */\n    tag_163:\n        /* \"#utility.yul\":1611:1733   */\n      pop\n      jump\t// out\n        /* \"#utility.yul\":1739:1878   */\n    tag_125:\n        /* \"#utility.yul\":1785:1790   */\n      0x00\n        /* \"#utility.yul\":1823:1829   */\n      dup2\n        /* \"#utility.yul\":1810:1830   */\n      calldataload\n        /* \"#utility.yul\":1801:1830   */\n      swap1\n      pop\n        /* \"#utility.yul\":1839:1872   */\n      tag_165\n        /* \"#utility.yul\":1866:1871   */\n      dup2\n        /* \"#utility.yul\":1839:1872   */\n      tag_124\n      jump\t// in\n    tag_165:\n        /* \"#utility.yul\":1739:1878   */\n      swap3\n      swap2\n      pop\n      pop\n      jump\t// out\n        /* \"#utility.yul\":1884:2213   */\n    tag_33:\n        /* \"#utility.yul\":1943:1949   */\n      0x00\n        /* \"#utility.yul\":1992:1994   */\n      0x20\n        /* \"#utility.yul\":1980:1989   */\n      dup3\n        /* \"#utility.yul\":1971:1978   */\n      dup5\n        /* \"#utility.yul\":1967:1990   */\n      sub\n        /* \"#utility.yul\":1963:1995   */\n      slt\n        /* \"#utility.yul\":1960:2079   */\n      iszero\n      tag_167\n      jumpi\n        /* \"#utility.yul\":1998:2077   */\n      tag_168\n      tag_118\n      jump\t// in\n    tag_168:\n        /* \"#utility.yul\":1960:2079   */\n    tag_167:\n        /* \"#utility.yul\":2118:2119   */\n      0x00\n        /* \"#utility.yul\":2143:2196   */\n      tag_169\n        /* \"#utility.yul\":2188:2195   */\n      dup5\n        /* \"#utility.yul\":2179:2185   */\n      dup3\n        /* \"#utility.yul\":2168:2177   */\n      dup6\n        /* \"#utility.yul\":2164:2186   */\n      add\n        /* \"#utility.yul\":2143:2196   */\n      tag_125\n      jump\t// in\n    tag_169:\n        /* \"#utility.yul\":2133:2196   */\n      swap2\n      pop\n        /* \"#utility.yul\":2089:2206   */\n      pop\n        /* \"#utility.yul\":1884:2213   */\n      swap3\n      swap2\n      pop\n      pop\n      jump\t// out\n        /* \"#utility.yul\":2219:2337   */\n    tag_126:\n        /* \"#utility.yul\":2306:2330   */\n      tag_171\n        /* \"#utility.yul\":2324:2329   */\n      dup2\n        /* \"#utility.yul\":2306:2330   */\n      tag_121\n      jump\t// in\n    tag_171:\n        /* \"#utility.yul\":2301:2304   */\n      dup3\n        /* \"#utility.yul\":2294:2331   */\n      mstore\n        /* \"#utility.yul\":2219:2337   */\n      pop\n      pop\n      jump\t// out\n        /* \"#utility.yul\":2343:2565   */\n    tag_51:\n        /* \"#utility.yul\":2436:2440   */\n      0x00\n        /* \"#utility.yul\":2474:2476   */\n      0x20\n        /* \"#utility.yul\":2463:2472   */\n      dup3\n        /* \"#utility.yul\":2459:2477   */\n      add\n        /* \"#utility.yul\":2451:2477   */\n      swap1\n      pop\n        /* \"#utility.yul\":2487:2558   */\n      tag_173\n        /* \"#utility.yul\":2555:2556   */\n      0x00\n        /* \"#utility.yul\":2544:2553   */\n      dup4\n        /* \"#utility.yul\":2540:2557   */\n      add\n        /* \"#utility.yul\":2531:2537   */\n      dup5\n        /* \"#utility.yul\":2487:2558   */\n      tag_126\n      jump\t// in\n    tag_173:\n        /* \"#utility.yul\":2343:2565   */\n      swap3\n      swap2\n      pop\n      pop\n      jump\t// out\n        /* \"#utility.yul\":2571:2714   */\n    tag_127:\n        /* \"#utility.yul\":2628:2633   */\n      0x00\n        /* \"#utility.yul\":2659:2665   */\n      dup2\n        /* \"#utility.yul\":2653:2666   */\n      mload\n        /* \"#utility.yul\":2644:2666   */\n      swap1\n      pop\n        /* \"#utility.yul\":2675:2708   */\n      tag_175\n        /* \"#utility.yul\":2702:2707   */\n      dup2\n        /* \"#utility.yul\":2675:2708   */\n      tag_124\n      jump\t// in\n    tag_175:\n        /* \"#utility.yul\":2571:2714   */\n      swap3\n      swap2\n      pop\n      pop\n      jump\t// out\n        /* \"#utility.yul\":2720:3071   */\n    tag_55:\n        /* \"#utility.yul\":2790:2796   */\n      0x00\n        /* \"#utility.yul\":2839:2841   */\n      0x20\n        /* \"#utility.yul\":2827:2836   */\n      dup3\n        /* \"#utility.yul\":2818:2825   */\n      dup5\n        /* \"#utility.yul\":2814:2837   */\n      sub\n        /* \"#utility.yul\":2810:2842   */\n      slt\n        /* \"#utility.yul\":2807:2926   */\n      iszero\n      tag_177\n      jumpi\n        /* \"#utility.yul\":2845:2924   */\n      tag_178\n      tag_118\n      jump\t// in\n    tag_178:\n        /* \"#utility.yul\":2807:2926   */\n    tag_177:\n        /* \"#utility.yul\":2965:2966   */\n      0x00\n        /* \"#utility.yul\":2990:3054   */\n      tag_179\n        /* \"#utility.yul\":3046:3053   */\n      dup5\n        /* \"#utility.yul\":3037:3043   */\n      dup3\n        /* \"#utility.yul\":3026:3035   */\n      dup6\n        /* \"#utility.yul\":3022:3044   */\n      add\n        /* \"#utility.yul\":2990:3054   */\n      tag_127\n      jump\t// in\n    tag_179:\n        /* \"#utility.yul\":2980:3054   */\n      swap2\n      pop\n        /* \"#utility.yul\":2936:3064   */\n      pop\n        /* \"#utility.yul\":2720:3071   */\n      swap3\n      swap2\n      pop\n      pop\n      jump\t// out\n        /* \"#utility.yul\":3077:3257   */\n    tag_128:\n        /* \"#utility.yul\":3125:3202   */\n      0x4e487b7100000000000000000000000000000000000000000000000000000000\n        /* \"#utility.yul\":3122:3123   */\n      0x00\n        /* \"#utility.yul\":3115:3203   */\n      mstore\n        /* \"#utility.yul\":3222:3226   */\n      0x11\n        /* \"#utility.yul\":3219:3220   */\n      0x04\n        /* \"#utility.yul\":3212:3227   */\n      mstore\n        /* \"#utility.yul\":3246:3250   */\n      0x24\n        /* \"#utility.yul\":3243:3244   */\n      0x00\n        /* \"#utility.yul\":3236:3251   */\n      revert\n        /* \"#utility.yul\":3263:3454   */\n    tag_59:\n        /* \"#utility.yul\":3303:3306   */\n      0x00\n        /* \"#utility.yul\":3322:3342   */\n      tag_182\n        /* \"#utility.yul\":3340:3341   */\n      dup3\n        /* \"#utility.yul\":3322:3342   */\n      tag_115\n      jump\t// in\n    tag_182:\n        /* \"#utility.yul\":3317:3342   */\n      swap2\n      pop\n        /* \"#utility.yul\":3356:3376   */\n      tag_183\n        /* \"#utility.yul\":3374:3375   */\n      dup4\n        /* \"#utility.yul\":3356:3376   */\n      tag_115\n      jump\t// in\n    tag_183:\n        /* \"#utility.yul\":3351:3376   */\n      swap3\n      pop\n        /* \"#utility.yul\":3399:3400   */\n      dup3\n        /* \"#utility.yul\":3396:3397   */\n      dup3\n        /* \"#utility.yul\":3392:3401   */\n      add\n        /* \"#utility.yul\":3385:3401   */\n      swap1\n      pop\n        /* \"#utility.yul\":3420:3423   */\n      dup1\n        /* \"#utility.yul\":3417:3418   */\n      dup3\n        /* \"#utility.yul\":3414:3424   */\n      gt\n        /* \"#utility.yul\":3411:3447   */\n      iszero\n      tag_184\n      jumpi\n        /* \"#utility.yul\":3427:3445   */\n      tag_185\n      tag_128\n      jump\t// in\n    tag_185:\n        /* \"#utility.yul\":3411:3447   */\n    tag_184:\n        /* \"#utility.yul\":3263:3454   */\n      swap3\n      swap2\n      pop\n      pop\n      jump\t// out\n        /* \"#utility.yul\":3460:3629   */\n    tag_129:\n        /* \"#utility.yul\":3544:3555   */\n      0x00\n        /* \"#utility.yul\":3578:3584   */\n      dup3\n        /* \"#utility.yul\":3573:3576   */\n      dup3\n        /* \"#utility.yul\":3566:3585   */\n      mstore\n        /* \"#utility.yul\":3618:3622   */\n      0x20\n        /* \"#utility.yul\":3613:3616   */\n      dup3\n        /* \"#utility.yul\":3609:3623   */\n      add\n        /* \"#utility.yul\":3594:3623   */\n      swap1\n      pop\n        /* \"#utility.yul\":3460:3629   */\n      swap3\n      swap2\n      pop\n      pop\n      jump\t// out\n        /* \"#utility.yul\":3635:3805   */\n    tag_130:\n        /* \"#utility.yul\":3775:3797   */\n      0x4e6f207265776172647320617661696c61626c65000000000000000000000000\n        /* \"#utility.yul\":3771:3772   */\n      0x00\n        /* \"#utility.yul\":3763:3769   */\n      dup3\n        /* \"#utility.yul\":3759:3773   */\n      add\n        /* \"#utility.yul\":3752:3798   */\n      mstore\n        /* \"#utility.yul\":3635:3805   */\n      pop\n      jump\t// out\n        /* \"#utility.yul\":3811:4177   */\n    tag_131:\n        /* \"#utility.yul\":3953:3956   */\n      0x00\n        /* \"#utility.yul\":3974:4041   */\n      tag_189\n        /* \"#utility.yul\":4038:4040   */\n      0x14\n        /* \"#utility.yul\":4033:4036   */\n      dup4\n        /* \"#utility.yul\":3974:4041   */\n      tag_129\n      jump\t// in\n    tag_189:\n        /* \"#utility.yul\":3967:4041   */\n      swap2\n      pop\n        /* \"#utility.yul\":4050:4143   */\n      tag_190\n        /* \"#utility.yul\":4139:4142   */\n      dup3\n        /* \"#utility.yul\":4050:4143   */\n      tag_130\n      jump\t// in\n    tag_190:\n        /* \"#utility.yul\":4168:4170   */\n      0x20\n        /* \"#utility.yul\":4163:4166   */\n      dup3\n        /* \"#utility.yul\":4159:4171   */\n      add\n        /* \"#utility.yul\":4152:4171   */\n      swap1\n      pop\n        /* \"#utility.yul\":3811:4177   */\n      swap2\n      swap1\n      pop\n      jump\t// out\n        /* \"#utility.yul\":4183:4602   */\n    tag_63:\n        /* \"#utility.yul\":4349:4353   */\n      0x00\n        /* \"#utility.yul\":4387:4389   */\n      0x20\n        /* \"#utility.yul\":4376:4385   */\n      dup3\n        /* \"#utility.yul\":4372:4390   */\n      add\n        /* \"#utility.yul\":4364:4390   */\n      swap1\n      pop\n        /* \"#utility.yul\":4436:4445   */\n      dup2\n        /* \"#utility.yul\":4430:4434   */\n      dup2\n        /* \"#utility.yul\":4426:4446   */\n      sub\n        /* \"#utility.yul\":4422:4423   */\n      0x00\n        /* \"#utility.yul\":4411:4420   */\n      dup4\n        /* \"#utility.yul\":4407:4424   */\n      add\n        /* \"#utility.yul\":4400:4447   */\n      mstore\n        /* \"#utility.yul\":4464:4595   */\n      tag_192\n        /* \"#utility.yul\":4590:4594   */\n      dup2\n        /* \"#utility.yul\":4464:4595   */\n      tag_131\n      jump\t// in\n    tag_192:\n        /* \"#utility.yul\":4456:4595   */\n      swap1\n      pop\n        /* \"#utility.yul\":4183:4602   */\n      swap2\n      swap1\n      pop\n      jump\t// out\n        /* \"#utility.yul\":4608:4940   */\n    tag_65:\n        /* \"#utility.yul\":4729:4733   */\n      0x00\n        /* \"#utility.yul\":4767:4769   */\n      0x40\n        /* \"#utility.yul\":4756:4765   */\n      dup3\n        /* \"#utility.yul\":4752:4770   */\n      add\n        /* \"#utility.yul\":4744:4770   */\n      swap1\n      pop\n        /* \"#utility.yul\":4780:4851   */\n      tag_194\n        /* \"#utility.yul\":4848:4849   */\n      0x00\n        /* \"#utility.yul\":4837:4846   */\n      dup4\n        /* \"#utility.yul\":4833:4850   */\n      add\n        /* \"#utility.yul\":4824:4830   */\n      dup6\n        /* \"#utility.yul\":4780:4851   */\n      tag_126\n      jump\t// in\n    tag_194:\n        /* \"#utility.yul\":4861:4933   */\n      tag_195\n        /* \"#utility.yul\":4929:4931   */\n      0x20\n        /* \"#utility.yul\":4918:4927   */\n      dup4\n        /* \"#utility.yul\":4914:4932   */\n      add\n        /* \"#utility.yul\":4905:4911   */\n      dup5\n        /* \"#utility.yul\":4861:4933   */\n      tag_116\n      jump\t// in\n    tag_195:\n        /* \"#utility.yul\":4608:4940   */\n      swap4\n      swap3\n      pop\n      pop\n      pop\n      jump\t// out\n        /* \"#utility.yul\":4946:5036   */\n    tag_132:\n        /* \"#utility.yul\":4980:4987   */\n      0x00\n        /* \"#utility.yul\":5023:5028   */\n      dup2\n        /* \"#utility.yul\":5016:5029   */\n      iszero\n        /* \"#utility.yul\":5009:5030   */\n      iszero\n        /* \"#utility.yul\":4998:5030   */\n      swap1\n      pop\n        /* \"#utility.yul\":4946:5036   */\n      swap2\n      swap1\n      pop\n      jump\t// out\n        /* \"#utility.yul\":5042:5158   */\n    tag_133:\n        /* \"#utility.yul\":5112:5133   */\n      tag_198\n        /* \"#utility.yul\":5127:5132   */\n      dup2\n        /* \"#utility.yul\":5112:5133   */\n      tag_132\n      jump\t// in\n    tag_198:\n        /* \"#utility.yul\":5105:5110   */\n      dup2\n        /* \"#utility.yul\":5102:5134   */\n      eq\n        /* \"#utility.yul\":5092:5152   */\n      tag_199\n      jumpi\n        /* \"#utility.yul\":5148:5149   */\n      0x00\n        /* \"#utility.yul\":5145:5146   */\n      dup1\n        /* \"#utility.yul\":5138:5150   */\n      revert\n        /* \"#utility.yul\":5092:5152   */\n    tag_199:\n        /* \"#utility.yul\":5042:5158   */\n      pop\n      jump\t// out\n        /* \"#utility.yul\":5164:5301   */\n    tag_134:\n        /* \"#utility.yul\":5218:5223   */\n      0x00\n        /* \"#utility.yul\":5249:5255   */\n      dup2\n        /* \"#utility.yul\":5243:5256   */\n      mload\n        /* \"#utility.yul\":5234:5256   */\n      swap1\n      pop\n        /* \"#utility.yul\":5265:5295   */\n      tag_201\n        /* \"#utility.yul\":5289:5294   */\n      dup2\n        /* \"#utility.yul\":5265:5295   */\n      tag_133\n      jump\t// in\n    tag_201:\n        /* \"#utility.yul\":5164:5301   */\n      swap3\n      swap2\n      pop\n      pop\n      jump\t// out\n        /* \"#utility.yul\":5307:5652   */\n    tag_69:\n        /* \"#utility.yul\":5374:5380   */\n      0x00\n        /* \"#utility.yul\":5423:5425   */\n      0x20\n        /* \"#utility.yul\":5411:5420   */\n      dup3\n        /* \"#utility.yul\":5402:5409   */\n      dup5\n        /* \"#utility.yul\":5398:5421   */\n      sub\n        /* \"#utility.yul\":5394:5426   */\n      slt\n        /* \"#utility.yul\":5391:5510   */\n      iszero\n      tag_203\n      jumpi\n        /* \"#utility.yul\":5429:5508   */\n      tag_204\n      tag_118\n      jump\t// in\n    tag_204:\n        /* \"#utility.yul\":5391:5510   */\n    tag_203:\n        /* \"#utility.yul\":5549:5550   */\n      0x00\n        /* \"#utility.yul\":5574:5635   */\n      tag_205\n        /* \"#utility.yul\":5627:5634   */\n      dup5\n        /* \"#utility.yul\":5618:5624   */\n      dup3\n        /* \"#utility.yul\":5607:5616   */\n      dup6\n        /* \"#utility.yul\":5603:5625   */\n      add\n        /* \"#utility.yul\":5574:5635   */\n      tag_134\n      jump\t// in\n    tag_205:\n        /* \"#utility.yul\":5564:5635   */\n      swap2\n      pop\n        /* \"#utility.yul\":5520:5645   */\n      pop\n        /* \"#utility.yul\":5307:5652   */\n      swap3\n      swap2\n      pop\n      pop\n      jump\t// out\n        /* \"#utility.yul\":5658:5832   */\n    tag_135:\n        /* \"#utility.yul\":5798:5824   */\n      0x57697468647261775f5f5472616e736665724661696c65640000000000000000\n        /* \"#utility.yul\":5794:5795   */\n      0x00\n        /* \"#utility.yul\":5786:5792   */\n      dup3\n        /* \"#utility.yul\":5782:5796   */\n      add\n        /* \"#utility.yul\":5775:5825   */\n      mstore\n        /* \"#utility.yul\":5658:5832   */\n      pop\n      jump\t// out\n        /* \"#utility.yul\":5838:6204   */\n    tag_136:\n        /* \"#utility.yul\":5980:5983   */\n      0x00\n        /* \"#utility.yul\":6001:6068   */\n      tag_208\n        /* \"#utility.yul\":6065:6067   */\n      0x18\n        /* \"#utility.yul\":6060:6063   */\n      dup4\n        /* \"#utility.yul\":6001:6068   */\n      tag_129\n      jump\t// in\n    tag_208:\n        /* \"#utility.yul\":5994:6068   */\n      swap2\n      pop\n        /* \"#utility.yul\":6077:6170   */\n      tag_209\n        /* \"#utility.yul\":6166:6169   */\n      dup3\n        /* \"#utility.yul\":6077:6170   */\n      tag_135\n      jump\t// in\n    tag_209:\n        /* \"#utility.yul\":6195:6197   */\n      0x20\n        /* \"#utility.yul\":6190:6193   */\n      dup3\n        /* \"#utility.yul\":6186:6198   */\n      add\n        /* \"#utility.yul\":6179:6198   */\n      swap1\n      pop\n        /* \"#utility.yul\":5838:6204   */\n      swap2\n      swap1\n      pop\n      jump\t// out\n        /* \"#utility.yul\":6210:6629   */\n    tag_76:\n        /* \"#utility.yul\":6376:6380   */\n      0x00\n        /* \"#utility.yul\":6414:6416   */\n      0x20\n        /* \"#utility.yul\":6403:6412   */\n      dup3\n        /* \"#utility.yul\":6399:6417   */\n      add\n        /* \"#utility.yul\":6391:6417   */\n      swap1\n      pop\n        /* \"#utility.yul\":6463:6472   */\n      dup2\n        /* \"#utility.yul\":6457:6461   */\n      dup2\n        /* \"#utility.yul\":6453:6473   */\n      sub\n        /* \"#utility.yul\":6449:6450   */\n      0x00\n        /* \"#utility.yul\":6438:6447   */\n      dup4\n        /* \"#utility.yul\":6434:6451   */\n      add\n        /* \"#utility.yul\":6427:6474   */\n      mstore\n        /* \"#utility.yul\":6491:6622   */\n      tag_211\n        /* \"#utility.yul\":6617:6621   */\n      dup2\n        /* \"#utility.yul\":6491:6622   */\n      tag_136\n      jump\t// in\n    tag_211:\n        /* \"#utility.yul\":6483:6622   */\n      swap1\n      pop\n        /* \"#utility.yul\":6210:6629   */\n      swap2\n      swap1\n      pop\n      jump\t// out\n        /* \"#utility.yul\":6635:6829   */\n    tag_78:\n        /* \"#utility.yul\":6675:6679   */\n      0x00\n        /* \"#utility.yul\":6695:6715   */\n      tag_213\n        /* \"#utility.yul\":6713:6714   */\n      dup3\n        /* \"#utility.yul\":6695:6715   */\n      tag_115\n      jump\t// in\n    tag_213:\n        /* \"#utility.yul\":6690:6715   */\n      swap2\n      pop\n        /* \"#utility.yul\":6729:6749   */\n      tag_214\n        /* \"#utility.yul\":6747:6748   */\n      dup4\n        /* \"#utility.yul\":6729:6749   */\n      tag_115\n      jump\t// in\n    tag_214:\n        /* \"#utility.yul\":6724:6749   */\n      swap3\n      pop\n        /* \"#utility.yul\":6773:6774   */\n      dup3\n        /* \"#utility.yul\":6770:6771   */\n      dup3\n        /* \"#utility.yul\":6766:6775   */\n      sub\n        /* \"#utility.yul\":6758:6775   */\n      swap1\n      pop\n        /* \"#utility.yul\":6797:6798   */\n      dup2\n        /* \"#utility.yul\":6791:6795   */\n      dup2\n        /* \"#utility.yul\":6788:6799   */\n      gt\n        /* \"#utility.yul\":6785:6822   */\n      iszero\n      tag_215\n      jumpi\n        /* \"#utility.yul\":6802:6820   */\n      tag_216\n      tag_128\n      jump\t// in\n    tag_216:\n        /* \"#utility.yul\":6785:6822   */\n    tag_215:\n        /* \"#utility.yul\":6635:6829   */\n      swap3\n      swap2\n      pop\n      pop\n      jump\t// out\n        /* \"#utility.yul\":6835:7015   */\n    tag_137:\n        /* \"#utility.yul\":6883:6960   */\n      0x4e487b7100000000000000000000000000000000000000000000000000000000\n        /* \"#utility.yul\":6880:6881   */\n      0x00\n        /* \"#utility.yul\":6873:6961   */\n      mstore\n        /* \"#utility.yul\":6980:6984   */\n      0x12\n        /* \"#utility.yul\":6977:6978   */\n      0x04\n        /* \"#utility.yul\":6970:6985   */\n      mstore\n        /* \"#utility.yul\":7004:7008   */\n      0x24\n        /* \"#utility.yul\":7001:7002   */\n      0x00\n        /* \"#utility.yul\":6994:7009   */\n      revert\n        /* \"#utility.yul\":7021:7206   */\n    tag_89:\n        /* \"#utility.yul\":7061:7062   */\n      0x00\n        /* \"#utility.yul\":7078:7098   */\n      tag_219\n        /* \"#utility.yul\":7096:7097   */\n      dup3\n        /* \"#utility.yul\":7078:7098   */\n      tag_115\n      jump\t// in\n    tag_219:\n        /* \"#utility.yul\":7073:7098   */\n      swap2\n      pop\n        /* \"#utility.yul\":7112:7132   */\n      tag_220\n        /* \"#utility.yul\":7130:7131   */\n      dup4\n        /* \"#utility.yul\":7112:7132   */\n      tag_115\n      jump\t// in\n    tag_220:\n        /* \"#utility.yul\":7107:7132   */\n      swap3\n      pop\n        /* \"#utility.yul\":7151:7152   */\n      dup3\n        /* \"#utility.yul\":7141:7176   */\n      tag_221\n      jumpi\n        /* \"#utility.yul\":7156:7174   */\n      tag_222\n      tag_137\n      jump\t// in\n    tag_222:\n        /* \"#utility.yul\":7141:7176   */\n    tag_221:\n        /* \"#utility.yul\":7198:7199   */\n      dup3\n        /* \"#utility.yul\":7195:7196   */\n      dup3\n        /* \"#utility.yul\":7191:7200   */\n      div\n        /* \"#utility.yul\":7186:7200   */\n      swap1\n      pop\n        /* \"#utility.yul\":7021:7206   */\n      swap3\n      swap2\n      pop\n      pop\n      jump\t// out\n        /* \"#utility.yul\":7212:7622   */\n    tag_91:\n        /* \"#utility.yul\":7252:7259   */\n      0x00\n        /* \"#utility.yul\":7275:7295   */\n      tag_224\n        /* \"#utility.yul\":7293:7294   */\n      dup3\n        /* \"#utility.yul\":7275:7295   */\n      tag_115\n      jump\t// in\n    tag_224:\n        /* \"#utility.yul\":7270:7295   */\n      swap2\n      pop\n        /* \"#utility.yul\":7309:7329   */\n      tag_225\n        /* \"#utility.yul\":7327:7328   */\n      dup4\n        /* \"#utility.yul\":7309:7329   */\n      tag_115\n      jump\t// in\n    tag_225:\n        /* \"#utility.yul\":7304:7329   */\n      swap3\n      pop\n        /* \"#utility.yul\":7364:7365   */\n      dup3\n        /* \"#utility.yul\":7361:7362   */\n      dup3\n        /* \"#utility.yul\":7357:7366   */\n      mul\n        /* \"#utility.yul\":7386:7416   */\n      tag_226\n        /* \"#utility.yul\":7404:7415   */\n      dup2\n        /* \"#utility.yul\":7386:7416   */\n      tag_115\n      jump\t// in\n    tag_226:\n        /* \"#utility.yul\":7375:7416   */\n      swap2\n      pop\n        /* \"#utility.yul\":7565:7566   */\n      dup3\n        /* \"#utility.yul\":7556:7563   */\n      dup3\n        /* \"#utility.yul\":7552:7567   */\n      div\n        /* \"#utility.yul\":7549:7550   */\n      dup5\n        /* \"#utility.yul\":7546:7568   */\n      eq\n        /* \"#utility.yul\":7526:7527   */\n      dup4\n        /* \"#utility.yul\":7519:7528   */\n      iszero\n        /* \"#utility.yul\":7499:7582   */\n      or\n        /* \"#utility.yul\":7476:7615   */\n      tag_227\n      jumpi\n        /* \"#utility.yul\":7595:7613   */\n      tag_228\n      tag_128\n      jump\t// in\n    tag_228:\n        /* \"#utility.yul\":7476:7615   */\n    tag_227:\n        /* \"#utility.yul\":7260:7622   */\n      pop\n        /* \"#utility.yul\":7212:7622   */\n      swap3\n      swap2\n      pop\n      pop\n      jump\t// out\n        /* \"#utility.yul\":7628:7851   */\n    tag_138:\n        /* \"#utility.yul\":7768:7802   */\n      0x5374616b696e673a204e6f7420656e6f7567682062616c616e636520746f2073\n        /* \"#utility.yul\":7764:7765   */\n      0x00\n        /* \"#utility.yul\":7756:7762   */\n      dup3\n        /* \"#utility.yul\":7752:7766   */\n      add\n        /* \"#utility.yul\":7745:7803   */\n      mstore\n        /* \"#utility.yul\":7837:7843   */\n      0x74616b6500000000000000000000000000000000000000000000000000000000\n        /* \"#utility.yul\":7832:7834   */\n      0x20\n        /* \"#utility.yul\":7824:7830   */\n      dup3\n        /* \"#utility.yul\":7820:7835   */\n      add\n        /* \"#utility.yul\":7813:7844   */\n      mstore\n        /* \"#utility.yul\":7628:7851   */\n      pop\n      jump\t// out\n        /* \"#utility.yul\":7857:8223   */\n    tag_139:\n        /* \"#utility.yul\":7999:8002   */\n      0x00\n        /* \"#utility.yul\":8020:8087   */\n      tag_231\n        /* \"#utility.yul\":8084:8086   */\n      0x24\n        /* \"#utility.yul\":8079:8082   */\n      dup4\n        /* \"#utility.yul\":8020:8087   */\n      tag_129\n      jump\t// in\n    tag_231:\n        /* \"#utility.yul\":8013:8087   */\n      swap2\n      pop\n        /* \"#utility.yul\":8096:8189   */\n      tag_232\n        /* \"#utility.yul\":8185:8188   */\n      dup3\n        /* \"#utility.yul\":8096:8189   */\n      tag_138\n      jump\t// in\n    tag_232:\n        /* \"#utility.yul\":8214:8216   */\n      0x40\n        /* \"#utility.yul\":8209:8212   */\n      dup3\n        /* \"#utility.yul\":8205:8217   */\n      add\n        /* \"#utility.yul\":8198:8217   */\n      swap1\n      pop\n        /* \"#utility.yul\":7857:8223   */\n      swap2\n      swap1\n      pop\n      jump\t// out\n        /* \"#utility.yul\":8229:8648   */\n    tag_107:\n        /* \"#utility.yul\":8395:8399   */\n      0x00\n        /* \"#utility.yul\":8433:8435   */\n      0x20\n        /* \"#utility.yul\":8422:8431   */\n      dup3\n        /* \"#utility.yul\":8418:8436   */\n      add\n        /* \"#utility.yul\":8410:8436   */\n      swap1\n      pop\n        /* \"#utility.yul\":8482:8491   */\n      dup2\n        /* \"#utility.yul\":8476:8480   */\n      dup2\n        /* \"#utility.yul\":8472:8492   */\n      sub\n        /* \"#utility.yul\":8468:8469   */\n      0x00\n        /* \"#utility.yul\":8457:8466   */\n      dup4\n        /* \"#utility.yul\":8453:8470   */\n      add\n        /* \"#utility.yul\":8446:8493   */\n      mstore\n        /* \"#utility.yul\":8510:8641   */\n      tag_234\n        /* \"#utility.yul\":8636:8640   */\n      dup2\n        /* \"#utility.yul\":8510:8641   */\n      tag_139\n      jump\t// in\n    tag_234:\n        /* \"#utility.yul\":8502:8641   */\n      swap1\n      pop\n        /* \"#utility.yul\":8229:8648   */\n      swap2\n      swap1\n      pop\n      jump\t// out\n        /* \"#utility.yul\":8654:9096   */\n    tag_111:\n        /* \"#utility.yul\":8803:8807   */\n      0x00\n        /* \"#utility.yul\":8841:8843   */\n      0x60\n        /* \"#utility.yul\":8830:8839   */\n      dup3\n        /* \"#utility.yul\":8826:8844   */\n      add\n        /* \"#utility.yul\":8818:8844   */\n      swap1\n      pop\n        /* \"#utility.yul\":8854:8925   */\n      tag_236\n        /* \"#utility.yul\":8922:8923   */\n      0x00\n        /* \"#utility.yul\":8911:8920   */\n      dup4\n        /* \"#utility.yul\":8907:8924   */\n      add\n        /* \"#utility.yul\":8898:8904   */\n      dup7\n        /* \"#utility.yul\":8854:8925   */\n      tag_126\n      jump\t// in\n    tag_236:\n        /* \"#utility.yul\":8935:9007   */\n      tag_237\n        /* \"#utility.yul\":9003:9005   */\n      0x20\n        /* \"#utility.yul\":8992:9001   */\n      dup4\n        /* \"#utility.yul\":8988:9006   */\n      add\n        /* \"#utility.yul\":8979:8985   */\n      dup6\n        /* \"#utility.yul\":8935:9007   */\n      tag_126\n      jump\t// in\n    tag_237:\n        /* \"#utility.yul\":9017:9089   */\n      tag_238\n        /* \"#utility.yul\":9085:9087   */\n      0x40\n        /* \"#utility.yul\":9074:9083   */\n      dup4\n        /* \"#utility.yul\":9070:9088   */\n      add\n        /* \"#utility.yul\":9061:9067   */\n      dup5\n        /* \"#utility.yul\":9017:9089   */\n      tag_116\n      jump\t// in\n    tag_238:\n        /* \"#utility.yul\":8654:9096   */\n      swap5\n      swap4\n      pop\n      pop\n      pop\n      pop\n      jump\t// out\n\n    auxdata: 0xa264697066735822122057939d8e6b5fd3352b66166db07bd7c139266e18967b39bca2a9f56dbc79324e64736f6c63430008180033\n}\n","bytecode":{"linkReferences":{},"object":"608060405234801562000010575f80fd5b506040516200114d3803806200114d8339818101604052810190620000369190620000f4565b805f806101000a81548173ffffffffffffffffffffffffffffffffffffffff021916908373ffffffffffffffffffffffffffffffffffffffff1602179055505062000124565b5f80fd5b5f73ffffffffffffffffffffffffffffffffffffffff82169050919050565b5f620000ab8262000080565b9050919050565b5f620000be826200009f565b9050919050565b620000d081620000b2565b8114620000db575f80fd5b50565b5f81519050620000ee81620000c5565b92915050565b5f602082840312156200010c576200010b6200007c565b5b5f6200011b84828501620000de565b91505092915050565b61101b80620001325f395ff3fe608060405234801561000f575f80fd5b506004361061009c575f3560e01c8063862f62b411610064578063862f62b4146101345780638a31d976146101505780639168ae7214610180578063a694fc3a146101b0578063e88dc5b7146101cc5761009c565b8063224882a8146100a0578063372500ab146100be5780635d471b74146100c8578063631b8ad3146100f85780637b0a47ee14610116575b5f80fd5b6100a86101ea565b6040516100b59190610b2c565b60405180910390f35b6100c6610288565b005b6100e260048036038101906100dd9190610ba3565b61048f565b6040516100ef9190610b2c565b60405180910390f35b6101006104a4565b60405161010d9190610b2c565b60405180910390f35b61011e6104aa565b60405161012b9190610b2c565b60405180910390f35b61014e60048036038101906101499190610bf8565b6104af565b005b61016a60048036038101906101659190610ba3565b6106dc565b6040516101779190610b2c565b60405180910390f35b61019a60048036038101906101959190610ba3565b610832565b6040516101a79190610b2c565b60405180910390f35b6101ca60048036038101906101c59190610bf8565b610847565b005b6101d4610b0f565b6040516101e19190610b2c565b60405180910390f35b5f805f9054906101000a900473ffffffffffffffffffffffffffffffffffffffff1673ffffffffffffffffffffffffffffffffffffffff166370a08231336040518263ffffffff1660e01b81526004016102449190610c32565b602060405180830381865afa15801561025f573d5f803e3d5ffd5b505050506040513d601f19601f820116820180604052508101906102839190610c5f565b905090565b335f610293826106dc565b90508060045f8473ffffffffffffffffffffffffffffffffffffffff1673ffffffffffffffffffffffffffffffffffffffff1681526020019081526020015f205f8282546102e19190610cb7565b925050819055504260035f8473ffffffffffffffffffffffffffffffffffffffff1673ffffffffffffffffffffffffffffffffffffffff1681526020019081526020015f20819055505f60045f3373ffffffffffffffffffffffffffffffffffffffff1673ffffffffffffffffffffffffffffffffffffffff1681526020019081526020015f205490505f81116103ad576040517f08c379a00000000000000000000000000000000000000000000000000000000081526004016103a490610d44565b60405180910390fd5b5f60045f3373ffffffffffffffffffffffffffffffffffffffff1673ffffffffffffffffffffffffffffffffffffffff1681526020019081526020015f20819055505f8054906101000a900473ffffffffffffffffffffffffffffffffffffffff1673ffffffffffffffffffffffffffffffffffffffff1663a9059cbb33836040518363ffffffff1660e01b8152600401610449929190610d62565b6020604051808303815f875af1158015610465573d5f803e3d5ffd5b505050506040513d601f19601f820116820180604052508101906104899190610dbe565b50505050565b6004602052805f5260405f205f915090505481565b60025481565b600281565b335f6104ba826106dc565b90508060045f8473ffffffffffffffffffffffffffffffffffffffff1673ffffffffffffffffffffffffffffffffffffffff1681526020019081526020015f205f8282546105089190610cb7565b925050819055504260035f8473ffffffffffffffffffffffffffffffffffffffff1673ffffffffffffffffffffffffffffffffffffffff1681526020019081526020015f20819055508260015f3373ffffffffffffffffffffffffffffffffffffffff1673ffffffffffffffffffffffffffffffffffffffff1681526020019081526020015f205410156105d1576040517f08c379a00000000000000000000000000000000000000000000000000000000081526004016105c890610e33565b60405180910390fd5b8260015f3373ffffffffffffffffffffffffffffffffffffffff1673ffffffffffffffffffffffffffffffffffffffff1681526020019081526020015f205f82825461061d9190610e51565b925050819055508260025f8282546106359190610e51565b925050819055505f8054906101000a900473ffffffffffffffffffffffffffffffffffffffff1673ffffffffffffffffffffffffffffffffffffffff1663a9059cbb33856040518363ffffffff1660e01b8152600401610696929190610d62565b6020604051808303815f875af11580156106b2573d5f803e3d5ffd5b505050506040513d601f19601f820116820180604052508101906106d69190610dbe565b50505050565b5f8060015f8473ffffffffffffffffffffffffffffffffffffffff1673ffffffffffffffffffffffffffffffffffffffff1681526020019081526020015f2054036107665760045f8373ffffffffffffffffffffffffffffffffffffffff1673ffffffffffffffffffffffffffffffffffffffff1681526020019081526020015f2054905061082d565b5f60015f8473ffffffffffffffffffffffffffffffffffffffff1673ffffffffffffffffffffffffffffffffffffffff1681526020019081526020015f205490505f60035f8573ffffffffffffffffffffffffffffffffffffffff1673ffffffffffffffffffffffffffffffffffffffff1681526020019081526020015f2054426107f19190610e51565b90505f601e826108019190610eb1565b60646002856108109190610ee1565b61081a9190610eb1565b6108249190610ee1565b90508093505050505b919050565b6001602052805f5260405f205f915090505481565b335f610852826106dc565b90508060045f8473ffffffffffffffffffffffffffffffffffffffff1673ffffffffffffffffffffffffffffffffffffffff1681526020019081526020015f205f8282546108a09190610cb7565b925050819055504260035f8473ffffffffffffffffffffffffffffffffffffffff1673ffffffffffffffffffffffffffffffffffffffff1681526020019081526020015f20819055505f6108f26101ea565b03610929576040517f9b677fa000000000000000000000000000000000000000000000000000000000815260040160405180910390fd5b825f8054906101000a900473ffffffffffffffffffffffffffffffffffffffff1673ffffffffffffffffffffffffffffffffffffffff166370a08231336040518263ffffffff1660e01b81526004016109829190610c32565b602060405180830381865afa15801561099d573d5f803e3d5ffd5b505050506040513d601f19601f820116820180604052508101906109c19190610c5f565b1015610a02576040517f08c379a00000000000000000000000000000000000000000000000000000000081526004016109f990610f92565b60405180910390fd5b8260015f3373ffffffffffffffffffffffffffffffffffffffff1673ffffffffffffffffffffffffffffffffffffffff1681526020019081526020015f205f828254610a4e9190610cb7565b925050819055508260025f828254610a669190610cb7565b925050819055505f8054906101000a900473ffffffffffffffffffffffffffffffffffffffff1673ffffffffffffffffffffffffffffffffffffffff166323b872dd3330866040518463ffffffff1660e01b8152600401610ac993929190610fb0565b6020604051808303815f875af1158015610ae5573d5f803e3d5ffd5b505050506040513d601f19601f82011682018060405250810190610b099190610dbe565b50505050565b601e81565b5f819050919050565b610b2681610b14565b82525050565b5f602082019050610b3f5f830184610b1d565b92915050565b5f80fd5b5f73ffffffffffffffffffffffffffffffffffffffff82169050919050565b5f610b7282610b49565b9050919050565b610b8281610b68565b8114610b8c575f80fd5b50565b5f81359050610b9d81610b79565b92915050565b5f60208284031215610bb857610bb7610b45565b5b5f610bc584828501610b8f565b91505092915050565b610bd781610b14565b8114610be1575f80fd5b50565b5f81359050610bf281610bce565b92915050565b5f60208284031215610c0d57610c0c610b45565b5b5f610c1a84828501610be4565b91505092915050565b610c2c81610b68565b82525050565b5f602082019050610c455f830184610c23565b92915050565b5f81519050610c5981610bce565b92915050565b5f60208284031215610c7457610c73610b45565b5b5f610c8184828501610c4b565b91505092915050565b7f4e487b71000000000000000000000000000000000000000000000000000000005f52601160045260245ffd5b5f610cc182610b14565b9150610ccc83610b14565b9250828201905080821115610ce457610ce3610c8a565b5b92915050565b5f82825260208201905092915050565b7f4e6f207265776172647320617661696c61626c650000000000000000000000005f82015250565b5f610d2e601483610cea565b9150610d3982610cfa565b602082019050919050565b5f6020820190508181035f830152610d5b81610d22565b9050919050565b5f604082019050610d755f830185610c23565b610d826020830184610b1d565b9392505050565b5f8115159050919050565b610d9d81610d89565b8114610da7575f80fd5b50565b5f81519050610db881610d94565b92915050565b5f60208284031215610dd357610dd2610b45565b5b5f610de084828501610daa565b91505092915050565b7f57697468647261775f5f5472616e736665724661696c656400000000000000005f82015250565b5f610e1d601883610cea565b9150610e2882610de9565b602082019050919050565b5f6020820190508181035f830152610e4a81610e11565b9050919050565b5f610e5b82610b14565b9150610e6683610b14565b9250828203905081811115610e7e57610e7d610c8a565b5b92915050565b7f4e487b71000000000000000000000000000000000000000000000000000000005f52601260045260245ffd5b5f610ebb82610b14565b9150610ec683610b14565b925082610ed657610ed5610e84565b5b828204905092915050565b5f610eeb82610b14565b9150610ef683610b14565b9250828202610f0481610b14565b91508282048414831517610f1b57610f1a610c8a565b5b5092915050565b7f5374616b696e673a204e6f7420656e6f7567682062616c616e636520746f20735f8201527f74616b6500000000000000000000000000000000000000000000000000000000602082015250565b5f610f7c602483610cea565b9150610f8782610f22565b604082019050919050565b5f6020820190508181035f830152610fa981610f70565b9050919050565b5f606082019050610fc35f830186610c23565b610fd06020830185610c23565b610fdd6040830184610b1d565b94935050505056fea264697066735822122057939d8e6b5fd3352b66166db07bd7c139266e18967b39bca2a9f56dbc79324e64736f6c63430008180033","opcodes":"PUSH1 0x80 PUSH1 0x40 MSTORE CALLVALUE DUP1 ISZERO PUSH3 0x10 JUMPI PUSH0 DUP1 REVERT JUMPDEST POP PUSH1 0x40 MLOAD PUSH3 0x114D CODESIZE SUB DUP1 PUSH3 0x114D DUP4 CODECOPY DUP2 DUP2 ADD PUSH1 0x40 MSTORE DUP2 ADD SWAP1 PUSH3 0x36 SWAP2 SWAP1 PUSH3 0xF4 JUMP JUMPDEST DUP1 PUSH0 DUP1 PUSH2 0x100 EXP DUP2 SLOAD DUP2 PUSH20 0xFFFFFFFFFFFFFFFFFFFFFFFFFFFFFFFFFFFFFFFF MUL NOT AND SWAP1 DUP4 PUSH20 0xFFFFFFFFFFFFFFFFFFFFFFFFFFFFFFFFFFFFFFFF AND MUL OR SWAP1 SSTORE POP POP PUSH3 0x124 JUMP JUMPDEST PUSH0 DUP1 REVERT JUMPDEST PUSH0 PUSH20 0xFFFFFFFFFFFFFFFFFFFFFFFFFFFFFFFFFFFFFFFF DUP3 AND SWAP1 POP SWAP2 SWAP1 POP JUMP JUMPDEST PUSH0 PUSH3 0xAB DUP3 PUSH3 0x80 JUMP JUMPDEST SWAP1 POP SWAP2 SWAP1 POP JUMP JUMPDEST PUSH0 PUSH3 0xBE DUP3 PUSH3 0x9F JUMP JUMPDEST SWAP1 POP SWAP2 SWAP1 POP JUMP JUMPDEST PUSH3 0xD0 DUP2 PUSH3 0xB2 JUMP JUMPDEST DUP2 EQ PUSH3 0xDB JUMPI PUSH0 DUP1 REVERT JUMPDEST POP JUMP JUMPDEST PUSH0 DUP2 MLOAD SWAP1 POP PUSH3 0xEE DUP2 PUSH3 0xC5 JUMP JUMPDEST SWAP3 SWAP2 POP POP JUMP JUMPDEST PUSH0 PUSH1 0x20 DUP3 DUP5 SUB SLT ISZERO PUSH3 0x10C JUMPI PUSH3 0x10B PUSH3 0x7C JUMP JUMPDEST JUMPDEST PUSH0 PUSH3 0x11B DUP5 DUP3 DUP6 ADD PUSH3 0xDE JUMP JUMPDEST SWAP2 POP POP SWAP3 SWAP2 POP POP JUMP JUMPDEST PUSH2 0x101B DUP1 PUSH3 0x132 PUSH0 CODECOPY PUSH0 RETURN INVALID PUSH1 0x80 PUSH1 0x40 MSTORE CALLVALUE DUP1 ISZERO PUSH2 0xF JUMPI PUSH0 DUP1 REVERT JUMPDEST POP PUSH1 0x4 CALLDATASIZE LT PUSH2 0x9C JUMPI PUSH0 CALLDATALOAD PUSH1 0xE0 SHR DUP1 PUSH4 0x862F62B4 GT PUSH2 0x64 JUMPI DUP1 PUSH4 0x862F62B4 EQ PUSH2 0x134 JUMPI DUP1 PUSH4 0x8A31D976 EQ PUSH2 0x150 JUMPI DUP1 PUSH4 0x9168AE72 EQ PUSH2 0x180 JUMPI DUP1 PUSH4 0xA694FC3A EQ PUSH2 0x1B0 JUMPI DUP1 PUSH4 0xE88DC5B7 EQ PUSH2 0x1CC JUMPI PUSH2 0x9C JUMP JUMPDEST DUP1 PUSH4 0x224882A8 EQ PUSH2 0xA0 JUMPI DUP1 PUSH4 0x372500AB EQ PUSH2 0xBE JUMPI DUP1 PUSH4 0x5D471B74 EQ PUSH2 0xC8 JUMPI DUP1 PUSH4 0x631B8AD3 EQ PUSH2 0xF8 JUMPI DUP1 PUSH4 0x7B0A47EE EQ PUSH2 0x116 JUMPI JUMPDEST PUSH0 DUP1 REVERT JUMPDEST PUSH2 0xA8 PUSH2 0x1EA JUMP JUMPDEST PUSH1 0x40 MLOAD PUSH2 0xB5 SWAP2 SWAP1 PUSH2 0xB2C JUMP JUMPDEST PUSH1 0x40 MLOAD DUP1 SWAP2 SUB SWAP1 RETURN JUMPDEST PUSH2 0xC6 PUSH2 0x288 JUMP JUMPDEST STOP JUMPDEST PUSH2 0xE2 PUSH1 0x4 DUP1 CALLDATASIZE SUB DUP2 ADD SWAP1 PUSH2 0xDD SWAP2 SWAP1 PUSH2 0xBA3 JUMP JUMPDEST PUSH2 0x48F JUMP JUMPDEST PUSH1 0x40 MLOAD PUSH2 0xEF SWAP2 SWAP1 PUSH2 0xB2C JUMP JUMPDEST PUSH1 0x40 MLOAD DUP1 SWAP2 SUB SWAP1 RETURN JUMPDEST PUSH2 0x100 PUSH2 0x4A4 JUMP JUMPDEST PUSH1 0x40 MLOAD PUSH2 0x10D SWAP2 SWAP1 PUSH2 0xB2C JUMP JUMPDEST PUSH1 0x40 MLOAD DUP1 SWAP2 SUB SWAP1 RETURN JUMPDEST PUSH2 0x11E PUSH2 0x4AA JUMP JUMPDEST PUSH1 0x40 MLOAD PUSH2 0x12B SWAP2 SWAP1 PUSH2 0xB2C JUMP JUMPDEST PUSH1 0x40 MLOAD DUP1 SWAP2 SUB SWAP1 RETURN JUMPDEST PUSH2 0x14E PUSH1 0x4 DUP1 CALLDATASIZE SUB DUP2 ADD SWAP1 PUSH2 0x149 SWAP2 SWAP1 PUSH2 0xBF8 JUMP JUMPDEST PUSH2 0x4AF JUMP JUMPDEST STOP JUMPDEST PUSH2 0x16A PUSH1 0x4 DUP1 CALLDATASIZE SUB DUP2 ADD SWAP1 PUSH2 0x165 SWAP2 SWAP1 PUSH2 0xBA3 JUMP JUMPDEST PUSH2 0x6DC JUMP JUMPDEST PUSH1 0x40 MLOAD PUSH2 0x177 SWAP2 SWAP1 PUSH2 0xB2C JUMP JUMPDEST PUSH1 0x40 MLOAD DUP1 SWAP2 SUB SWAP1 RETURN JUMPDEST PUSH2 0x19A PUSH1 0x4 DUP1 CALLDATASIZE SUB DUP2 ADD SWAP1 PUSH2 0x195 SWAP2 SWAP1 PUSH2 0xBA3 JUMP JUMPDEST PUSH2 0x832 JUMP JUMPDEST PUSH1 0x40 MLOAD PUSH2 0x1A7 SWAP2 SWAP1 PUSH2 0xB2C JUMP JUMPDEST PUSH1 0x40 MLOAD DUP1 SWAP2 SUB SWAP1 RETURN JUMPDEST PUSH2 0x1CA PUSH1 0x4 DUP1 CALLDATASIZE SUB DUP2 ADD SWAP1 PUSH2 0x1C5 SWAP2 SWAP1 PUSH2 0xBF8 JUMP JUMPDEST PUSH2 0x847 JUMP JUMPDEST STOP JUMPDEST PUSH2 0x1D4 PUSH2 0xB0F JUMP JUMPDEST PUSH1 0x40 MLOAD PUSH2 0x1E1 SWAP2 SWAP1 PUSH2 0xB2C JUMP JUMPDEST PUSH1 0x40 MLOAD DUP1 SWAP2 SUB SWAP1 RETURN JUMPDEST PUSH0 DUP1 PUSH0 SWAP1 SLOAD SWAP1 PUSH2 0x100 EXP SWAP1 DIV PUSH20 0xFFFFFFFFFFFFFFFFFFFFFFFFFFFFFFFFFFFFFFFF AND PUSH20 0xFFFFFFFFFFFFFFFFFFFFFFFFFFFFFFFFFFFFFFFF AND PUSH4 0x70A08231 CALLER PUSH1 0x40 MLOAD DUP3 PUSH4 0xFFFFFFFF AND PUSH1 0xE0 SHL DUP2 MSTORE PUSH1 0x4 ADD PUSH2 0x244 SWAP2 SWAP1 PUSH2 0xC32 JUMP JUMPDEST PUSH1 0x20 PUSH1 0x40 MLOAD DUP1 DUP4 SUB DUP2 DUP7 GAS STATICCALL ISZERO DUP1 ISZERO PUSH2 0x25F JUMPI RETURNDATASIZE PUSH0 DUP1 RETURNDATACOPY RETURNDATASIZE PUSH0 REVERT JUMPDEST POP POP POP POP PUSH1 0x40 MLOAD RETURNDATASIZE PUSH1 0x1F NOT PUSH1 0x1F DUP3 ADD AND DUP3 ADD DUP1 PUSH1 0x40 MSTORE POP DUP2 ADD SWAP1 PUSH2 0x283 SWAP2 SWAP1 PUSH2 0xC5F JUMP JUMPDEST SWAP1 POP SWAP1 JUMP JUMPDEST CALLER PUSH0 PUSH2 0x293 DUP3 PUSH2 0x6DC JUMP JUMPDEST SWAP1 POP DUP1 PUSH1 0x4 PUSH0 DUP5 PUSH20 0xFFFFFFFFFFFFFFFFFFFFFFFFFFFFFFFFFFFFFFFF AND PUSH20 0xFFFFFFFFFFFFFFFFFFFFFFFFFFFFFFFFFFFFFFFF AND DUP2 MSTORE PUSH1 0x20 ADD SWAP1 DUP2 MSTORE PUSH1 0x20 ADD PUSH0 KECCAK256 PUSH0 DUP3 DUP3 SLOAD PUSH2 0x2E1 SWAP2 SWAP1 PUSH2 0xCB7 JUMP JUMPDEST SWAP3 POP POP DUP2 SWAP1 SSTORE POP TIMESTAMP PUSH1 0x3 PUSH0 DUP5 PUSH20 0xFFFFFFFFFFFFFFFFFFFFFFFFFFFFFFFFFFFFFFFF AND PUSH20 0xFFFFFFFFFFFFFFFFFFFFFFFFFFFFFFFFFFFFFFFF AND DUP2 MSTORE PUSH1 0x20 ADD SWAP1 DUP2 MSTORE PUSH1 0x20 ADD PUSH0 KECCAK256 DUP2 SWAP1 SSTORE POP PUSH0 PUSH1 0x4 PUSH0 CALLER PUSH20 0xFFFFFFFFFFFFFFFFFFFFFFFFFFFFFFFFFFFFFFFF AND PUSH20 0xFFFFFFFFFFFFFFFFFFFFFFFFFFFFFFFFFFFFFFFF AND DUP2 MSTORE PUSH1 0x20 ADD SWAP1 DUP2 MSTORE PUSH1 0x20 ADD PUSH0 KECCAK256 SLOAD SWAP1 POP PUSH0 DUP2 GT PUSH2 0x3AD JUMPI PUSH1 0x40 MLOAD PUSH32 0x8C379A000000000000000000000000000000000000000000000000000000000 DUP2 MSTORE PUSH1 0x4 ADD PUSH2 0x3A4 SWAP1 PUSH2 0xD44 JUMP JUMPDEST PUSH1 0x40 MLOAD DUP1 SWAP2 SUB SWAP1 REVERT JUMPDEST PUSH0 PUSH1 0x4 PUSH0 CALLER PUSH20 0xFFFFFFFFFFFFFFFFFFFFFFFFFFFFFFFFFFFFFFFF AND PUSH20 0xFFFFFFFFFFFFFFFFFFFFFFFFFFFFFFFFFFFFFFFF AND DUP2 MSTORE PUSH1 0x20 ADD SWAP1 DUP2 MSTORE PUSH1 0x20 ADD PUSH0 KECCAK256 DUP2 SWAP1 SSTORE POP PUSH0 DUP1 SLOAD SWAP1 PUSH2 0x100 EXP SWAP1 DIV PUSH20 0xFFFFFFFFFFFFFFFFFFFFFFFFFFFFFFFFFFFFFFFF AND PUSH20 0xFFFFFFFFFFFFFFFFFFFFFFFFFFFFFFFFFFFFFFFF AND PUSH4 0xA9059CBB CALLER DUP4 PUSH1 0x40 MLOAD DUP4 PUSH4 0xFFFFFFFF AND PUSH1 0xE0 SHL DUP2 MSTORE PUSH1 0x4 ADD PUSH2 0x449 SWAP3 SWAP2 SWAP1 PUSH2 0xD62 JUMP JUMPDEST PUSH1 0x20 PUSH1 0x40 MLOAD DUP1 DUP4 SUB DUP2 PUSH0 DUP8 GAS CALL ISZERO DUP1 ISZERO PUSH2 0x465 JUMPI RETURNDATASIZE PUSH0 DUP1 RETURNDATACOPY RETURNDATASIZE PUSH0 REVERT JUMPDEST POP POP POP POP PUSH1 0x40 MLOAD RETURNDATASIZE PUSH1 0x1F NOT PUSH1 0x1F DUP3 ADD AND DUP3 ADD DUP1 PUSH1 0x40 MSTORE POP DUP2 ADD SWAP1 PUSH2 0x489 SWAP2 SWAP1 PUSH2 0xDBE JUMP JUMPDEST POP POP POP POP JUMP JUMPDEST PUSH1 0x4 PUSH1 0x20 MSTORE DUP1 PUSH0 MSTORE PUSH1 0x40 PUSH0 KECCAK256 PUSH0 SWAP2 POP SWAP1 POP SLOAD DUP2 JUMP JUMPDEST PUSH1 0x2 SLOAD DUP2 JUMP JUMPDEST PUSH1 0x2 DUP2 JUMP JUMPDEST CALLER PUSH0 PUSH2 0x4BA DUP3 PUSH2 0x6DC JUMP JUMPDEST SWAP1 POP DUP1 PUSH1 0x4 PUSH0 DUP5 PUSH20 0xFFFFFFFFFFFFFFFFFFFFFFFFFFFFFFFFFFFFFFFF AND PUSH20 0xFFFFFFFFFFFFFFFFFFFFFFFFFFFFFFFFFFFFFFFF AND DUP2 MSTORE PUSH1 0x20 ADD SWAP1 DUP2 MSTORE PUSH1 0x20 ADD PUSH0 KECCAK256 PUSH0 DUP3 DUP3 SLOAD PUSH2 0x508 SWAP2 SWAP1 PUSH2 0xCB7 JUMP JUMPDEST SWAP3 POP POP DUP2 SWAP1 SSTORE POP TIMESTAMP PUSH1 0x3 PUSH0 DUP5 PUSH20 0xFFFFFFFFFFFFFFFFFFFFFFFFFFFFFFFFFFFFFFFF AND PUSH20 0xFFFFFFFFFFFFFFFFFFFFFFFFFFFFFFFFFFFFFFFF AND DUP2 MSTORE PUSH1 0x20 ADD SWAP1 DUP2 MSTORE PUSH1 0x20 ADD PUSH0 KECCAK256 DUP2 SWAP1 SSTORE POP DUP3 PUSH1 0x1 PUSH0 CALLER PUSH20 0xFFFFFFFFFFFFFFFFFFFFFFFFFFFFFFFFFFFFFFFF AND PUSH20 0xFFFFFFFFFFFFFFFFFFFFFFFFFFFFFFFFFFFFFFFF AND DUP2 MSTORE PUSH1 0x20 ADD SWAP1 DUP2 MSTORE PUSH1 0x20 ADD PUSH0 KECCAK256 SLOAD LT ISZERO PUSH2 0x5D1 JUMPI PUSH1 0x40 MLOAD PUSH32 0x8C379A000000000000000000000000000000000000000000000000000000000 DUP2 MSTORE PUSH1 0x4 ADD PUSH2 0x5C8 SWAP1 PUSH2 0xE33 JUMP JUMPDEST PUSH1 0x40 MLOAD DUP1 SWAP2 SUB SWAP1 REVERT JUMPDEST DUP3 PUSH1 0x1 PUSH0 CALLER PUSH20 0xFFFFFFFFFFFFFFFFFFFFFFFFFFFFFFFFFFFFFFFF AND PUSH20 0xFFFFFFFFFFFFFFFFFFFFFFFFFFFFFFFFFFFFFFFF AND DUP2 MSTORE PUSH1 0x20 ADD SWAP1 DUP2 MSTORE PUSH1 0x20 ADD PUSH0 KECCAK256 PUSH0 DUP3 DUP3 SLOAD PUSH2 0x61D SWAP2 SWAP1 PUSH2 0xE51 JUMP JUMPDEST SWAP3 POP POP DUP2 SWAP1 SSTORE POP DUP3 PUSH1 0x2 PUSH0 DUP3 DUP3 SLOAD PUSH2 0x635 SWAP2 SWAP1 PUSH2 0xE51 JUMP JUMPDEST SWAP3 POP POP DUP2 SWAP1 SSTORE POP PUSH0 DUP1 SLOAD SWAP1 PUSH2 0x100 EXP SWAP1 DIV PUSH20 0xFFFFFFFFFFFFFFFFFFFFFFFFFFFFFFFFFFFFFFFF AND PUSH20 0xFFFFFFFFFFFFFFFFFFFFFFFFFFFFFFFFFFFFFFFF AND PUSH4 0xA9059CBB CALLER DUP6 PUSH1 0x40 MLOAD DUP4 PUSH4 0xFFFFFFFF AND PUSH1 0xE0 SHL DUP2 MSTORE PUSH1 0x4 ADD PUSH2 0x696 SWAP3 SWAP2 SWAP1 PUSH2 0xD62 JUMP JUMPDEST PUSH1 0x20 PUSH1 0x40 MLOAD DUP1 DUP4 SUB DUP2 PUSH0 DUP8 GAS CALL ISZERO DUP1 ISZERO PUSH2 0x6B2 JUMPI RETURNDATASIZE PUSH0 DUP1 RETURNDATACOPY RETURNDATASIZE PUSH0 REVERT JUMPDEST POP POP POP POP PUSH1 0x40 MLOAD RETURNDATASIZE PUSH1 0x1F NOT PUSH1 0x1F DUP3 ADD AND DUP3 ADD DUP1 PUSH1 0x40 MSTORE POP DUP2 ADD SWAP1 PUSH2 0x6D6 SWAP2 SWAP1 PUSH2 0xDBE JUMP JUMPDEST POP POP POP POP JUMP JUMPDEST PUSH0 DUP1 PUSH1 0x1 PUSH0 DUP5 PUSH20 0xFFFFFFFFFFFFFFFFFFFFFFFFFFFFFFFFFFFFFFFF AND PUSH20 0xFFFFFFFFFFFFFFFFFFFFFFFFFFFFFFFFFFFFFFFF AND DUP2 MSTORE PUSH1 0x20 ADD SWAP1 DUP2 MSTORE PUSH1 0x20 ADD PUSH0 KECCAK256 SLOAD SUB PUSH2 0x766 JUMPI PUSH1 0x4 PUSH0 DUP4 PUSH20 0xFFFFFFFFFFFFFFFFFFFFFFFFFFFFFFFFFFFFFFFF AND PUSH20 0xFFFFFFFFFFFFFFFFFFFFFFFFFFFFFFFFFFFFFFFF AND DUP2 MSTORE PUSH1 0x20 ADD SWAP1 DUP2 MSTORE PUSH1 0x20 ADD PUSH0 KECCAK256 SLOAD SWAP1 POP PUSH2 0x82D JUMP JUMPDEST PUSH0 PUSH1 0x1 PUSH0 DUP5 PUSH20 0xFFFFFFFFFFFFFFFFFFFFFFFFFFFFFFFFFFFFFFFF AND PUSH20 0xFFFFFFFFFFFFFFFFFFFFFFFFFFFFFFFFFFFFFFFF AND DUP2 MSTORE PUSH1 0x20 ADD SWAP1 DUP2 MSTORE PUSH1 0x20 ADD PUSH0 KECCAK256 SLOAD SWAP1 POP PUSH0 PUSH1 0x3 PUSH0 DUP6 PUSH20 0xFFFFFFFFFFFFFFFFFFFFFFFFFFFFFFFFFFFFFFFF AND PUSH20 0xFFFFFFFFFFFFFFFFFFFFFFFFFFFFFFFFFFFFFFFF AND DUP2 MSTORE PUSH1 0x20 ADD SWAP1 DUP2 MSTORE PUSH1 0x20 ADD PUSH0 KECCAK256 SLOAD TIMESTAMP PUSH2 0x7F1 SWAP2 SWAP1 PUSH2 0xE51 JUMP JUMPDEST SWAP1 POP PUSH0 PUSH1 0x1E DUP3 PUSH2 0x801 SWAP2 SWAP1 PUSH2 0xEB1 JUMP JUMPDEST PUSH1 0x64 PUSH1 0x2 DUP6 PUSH2 0x810 SWAP2 SWAP1 PUSH2 0xEE1 JUMP JUMPDEST PUSH2 0x81A SWAP2 SWAP1 PUSH2 0xEB1 JUMP JUMPDEST PUSH2 0x824 SWAP2 SWAP1 PUSH2 0xEE1 JUMP JUMPDEST SWAP1 POP DUP1 SWAP4 POP POP POP POP JUMPDEST SWAP2 SWAP1 POP JUMP JUMPDEST PUSH1 0x1 PUSH1 0x20 MSTORE DUP1 PUSH0 MSTORE PUSH1 0x40 PUSH0 KECCAK256 PUSH0 SWAP2 POP SWAP1 POP SLOAD DUP2 JUMP JUMPDEST CALLER PUSH0 PUSH2 0x852 DUP3 PUSH2 0x6DC JUMP JUMPDEST SWAP1 POP DUP1 PUSH1 0x4 PUSH0 DUP5 PUSH20 0xFFFFFFFFFFFFFFFFFFFFFFFFFFFFFFFFFFFFFFFF AND PUSH20 0xFFFFFFFFFFFFFFFFFFFFFFFFFFFFFFFFFFFFFFFF AND DUP2 MSTORE PUSH1 0x20 ADD SWAP1 DUP2 MSTORE PUSH1 0x20 ADD PUSH0 KECCAK256 PUSH0 DUP3 DUP3 SLOAD PUSH2 0x8A0 SWAP2 SWAP1 PUSH2 0xCB7 JUMP JUMPDEST SWAP3 POP POP DUP2 SWAP1 SSTORE POP TIMESTAMP PUSH1 0x3 PUSH0 DUP5 PUSH20 0xFFFFFFFFFFFFFFFFFFFFFFFFFFFFFFFFFFFFFFFF AND PUSH20 0xFFFFFFFFFFFFFFFFFFFFFFFFFFFFFFFFFFFFFFFF AND DUP2 MSTORE PUSH1 0x20 ADD SWAP1 DUP2 MSTORE PUSH1 0x20 ADD PUSH0 KECCAK256 DUP2 SWAP1 SSTORE POP PUSH0 PUSH2 0x8F2 PUSH2 0x1EA JUMP JUMPDEST SUB PUSH2 0x929 JUMPI PUSH1 0x40 MLOAD PUSH32 0x9B677FA000000000000000000000000000000000000000000000000000000000 DUP2 MSTORE PUSH1 0x4 ADD PUSH1 0x40 MLOAD DUP1 SWAP2 SUB SWAP1 REVERT JUMPDEST DUP3 PUSH0 DUP1 SLOAD SWAP1 PUSH2 0x100 EXP SWAP1 DIV PUSH20 0xFFFFFFFFFFFFFFFFFFFFFFFFFFFFFFFFFFFFFFFF AND PUSH20 0xFFFFFFFFFFFFFFFFFFFFFFFFFFFFFFFFFFFFFFFF AND PUSH4 0x70A08231 CALLER PUSH1 0x40 MLOAD DUP3 PUSH4 0xFFFFFFFF AND PUSH1 0xE0 SHL DUP2 MSTORE PUSH1 0x4 ADD PUSH2 0x982 SWAP2 SWAP1 PUSH2 0xC32 JUMP JUMPDEST PUSH1 0x20 PUSH1 0x40 MLOAD DUP1 DUP4 SUB DUP2 DUP7 GAS STATICCALL ISZERO DUP1 ISZERO PUSH2 0x99D JUMPI RETURNDATASIZE PUSH0 DUP1 RETURNDATACOPY RETURNDATASIZE PUSH0 REVERT JUMPDEST POP POP POP POP PUSH1 0x40 MLOAD RETURNDATASIZE PUSH1 0x1F NOT PUSH1 0x1F DUP3 ADD AND DUP3 ADD DUP1 PUSH1 0x40 MSTORE POP DUP2 ADD SWAP1 PUSH2 0x9C1 SWAP2 SWAP1 PUSH2 0xC5F JUMP JUMPDEST LT ISZERO PUSH2 0xA02 JUMPI PUSH1 0x40 MLOAD PUSH32 0x8C379A000000000000000000000000000000000000000000000000000000000 DUP2 MSTORE PUSH1 0x4 ADD PUSH2 0x9F9 SWAP1 PUSH2 0xF92 JUMP JUMPDEST PUSH1 0x40 MLOAD DUP1 SWAP2 SUB SWAP1 REVERT JUMPDEST DUP3 PUSH1 0x1 PUSH0 CALLER PUSH20 0xFFFFFFFFFFFFFFFFFFFFFFFFFFFFFFFFFFFFFFFF AND PUSH20 0xFFFFFFFFFFFFFFFFFFFFFFFFFFFFFFFFFFFFFFFF AND DUP2 MSTORE PUSH1 0x20 ADD SWAP1 DUP2 MSTORE PUSH1 0x20 ADD PUSH0 KECCAK256 PUSH0 DUP3 DUP3 SLOAD PUSH2 0xA4E SWAP2 SWAP1 PUSH2 0xCB7 JUMP JUMPDEST SWAP3 POP POP DUP2 SWAP1 SSTORE POP DUP3 PUSH1 0x2 PUSH0 DUP3 DUP3 SLOAD PUSH2 0xA66 SWAP2 SWAP1 PUSH2 0xCB7 JUMP JUMPDEST SWAP3 POP POP DUP2 SWAP1 SSTORE POP PUSH0 DUP1 SLOAD SWAP1 PUSH2 0x100 EXP SWAP1 DIV PUSH20 0xFFFFFFFFFFFFFFFFFFFFFFFFFFFFFFFFFFFFFFFF AND PUSH20 0xFFFFFFFFFFFFFFFFFFFFFFFFFFFFFFFFFFFFFFFF AND PUSH4 0x23B872DD CALLER ADDRESS DUP7 PUSH1 0x40 MLOAD DUP5 PUSH4 0xFFFFFFFF AND PUSH1 0xE0 SHL DUP2 MSTORE PUSH1 0x4 ADD PUSH2 0xAC9 SWAP4 SWAP3 SWAP2 SWAP1 PUSH2 0xFB0 JUMP JUMPDEST PUSH1 0x20 PUSH1 0x40 MLOAD DUP1 DUP4 SUB DUP2 PUSH0 DUP8 GAS CALL ISZERO DUP1 ISZERO PUSH2 0xAE5 JUMPI RETURNDATASIZE PUSH0 DUP1 RETURNDATACOPY RETURNDATASIZE PUSH0 REVERT JUMPDEST POP POP POP POP PUSH1 0x40 MLOAD RETURNDATASIZE PUSH1 0x1F NOT PUSH1 0x1F DUP3 ADD AND DUP3 ADD DUP1 PUSH1 0x40 MSTORE POP DUP2 ADD SWAP1 PUSH2 0xB09 SWAP2 SWAP1 PUSH2 0xDBE JUMP JUMPDEST POP POP POP POP JUMP JUMPDEST PUSH1 0x1E DUP2 JUMP JUMPDEST PUSH0 DUP2 SWAP1 POP SWAP2 SWAP1 POP JUMP JUMPDEST PUSH2 0xB26 DUP2 PUSH2 0xB14 JUMP JUMPDEST DUP3 MSTORE POP POP JUMP JUMPDEST PUSH0 PUSH1 0x20 DUP3 ADD SWAP1 POP PUSH2 0xB3F PUSH0 DUP4 ADD DUP5 PUSH2 0xB1D JUMP JUMPDEST SWAP3 SWAP2 POP POP JUMP JUMPDEST PUSH0 DUP1 REVERT JUMPDEST PUSH0 PUSH20 0xFFFFFFFFFFFFFFFFFFFFFFFFFFFFFFFFFFFFFFFF DUP3 AND SWAP1 POP SWAP2 SWAP1 POP JUMP JUMPDEST PUSH0 PUSH2 0xB72 DUP3 PUSH2 0xB49 JUMP JUMPDEST SWAP1 POP SWAP2 SWAP1 POP JUMP JUMPDEST PUSH2 0xB82 DUP2 PUSH2 0xB68 JUMP JUMPDEST DUP2 EQ PUSH2 0xB8C JUMPI PUSH0 DUP1 REVERT JUMPDEST POP JUMP JUMPDEST PUSH0 DUP2 CALLDATALOAD SWAP1 POP PUSH2 0xB9D DUP2 PUSH2 0xB79 JUMP JUMPDEST SWAP3 SWAP2 POP POP JUMP JUMPDEST PUSH0 PUSH1 0x20 DUP3 DUP5 SUB SLT ISZERO PUSH2 0xBB8 JUMPI PUSH2 0xBB7 PUSH2 0xB45 JUMP JUMPDEST JUMPDEST PUSH0 PUSH2 0xBC5 DUP5 DUP3 DUP6 ADD PUSH2 0xB8F JUMP JUMPDEST SWAP2 POP POP SWAP3 SWAP2 POP POP JUMP JUMPDEST PUSH2 0xBD7 DUP2 PUSH2 0xB14 JUMP JUMPDEST DUP2 EQ PUSH2 0xBE1 JUMPI PUSH0 DUP1 REVERT JUMPDEST POP JUMP JUMPDEST PUSH0 DUP2 CALLDATALOAD SWAP1 POP PUSH2 0xBF2 DUP2 PUSH2 0xBCE JUMP JUMPDEST SWAP3 SWAP2 POP POP JUMP JUMPDEST PUSH0 PUSH1 0x20 DUP3 DUP5 SUB SLT ISZERO PUSH2 0xC0D JUMPI PUSH2 0xC0C PUSH2 0xB45 JUMP JUMPDEST JUMPDEST PUSH0 PUSH2 0xC1A DUP5 DUP3 DUP6 ADD PUSH2 0xBE4 JUMP JUMPDEST SWAP2 POP POP SWAP3 SWAP2 POP POP JUMP JUMPDEST PUSH2 0xC2C DUP2 PUSH2 0xB68 JUMP JUMPDEST DUP3 MSTORE POP POP JUMP JUMPDEST PUSH0 PUSH1 0x20 DUP3 ADD SWAP1 POP PUSH2 0xC45 PUSH0 DUP4 ADD DUP5 PUSH2 0xC23 JUMP JUMPDEST SWAP3 SWAP2 POP POP JUMP JUMPDEST PUSH0 DUP2 MLOAD SWAP1 POP PUSH2 0xC59 DUP2 PUSH2 0xBCE JUMP JUMPDEST SWAP3 SWAP2 POP POP JUMP JUMPDEST PUSH0 PUSH1 0x20 DUP3 DUP5 SUB SLT ISZERO PUSH2 0xC74 JUMPI PUSH2 0xC73 PUSH2 0xB45 JUMP JUMPDEST JUMPDEST PUSH0 PUSH2 0xC81 DUP5 DUP3 DUP6 ADD PUSH2 0xC4B JUMP JUMPDEST SWAP2 POP POP SWAP3 SWAP2 POP POP JUMP JUMPDEST PUSH32 0x4E487B7100000000000000000000000000000000000000000000000000000000 PUSH0 MSTORE PUSH1 0x11 PUSH1 0x4 MSTORE PUSH1 0x24 PUSH0 REVERT JUMPDEST PUSH0 PUSH2 0xCC1 DUP3 PUSH2 0xB14 JUMP JUMPDEST SWAP2 POP PUSH2 0xCCC DUP4 PUSH2 0xB14 JUMP JUMPDEST SWAP3 POP DUP3 DUP3 ADD SWAP1 POP DUP1 DUP3 GT ISZERO PUSH2 0xCE4 JUMPI PUSH2 0xCE3 PUSH2 0xC8A JUMP JUMPDEST JUMPDEST SWAP3 SWAP2 POP POP JUMP JUMPDEST PUSH0 DUP3 DUP3 MSTORE PUSH1 0x20 DUP3 ADD SWAP1 POP SWAP3 SWAP2 POP POP JUMP JUMPDEST PUSH32 0x4E6F207265776172647320617661696C61626C65000000000000000000000000 PUSH0 DUP3 ADD MSTORE POP JUMP JUMPDEST PUSH0 PUSH2 0xD2E PUSH1 0x14 DUP4 PUSH2 0xCEA JUMP JUMPDEST SWAP2 POP PUSH2 0xD39 DUP3 PUSH2 0xCFA JUMP JUMPDEST PUSH1 0x20 DUP3 ADD SWAP1 POP SWAP2 SWAP1 POP JUMP JUMPDEST PUSH0 PUSH1 0x20 DUP3 ADD SWAP1 POP DUP2 DUP2 SUB PUSH0 DUP4 ADD MSTORE PUSH2 0xD5B DUP2 PUSH2 0xD22 JUMP JUMPDEST SWAP1 POP SWAP2 SWAP1 POP JUMP JUMPDEST PUSH0 PUSH1 0x40 DUP3 ADD SWAP1 POP PUSH2 0xD75 PUSH0 DUP4 ADD DUP6 PUSH2 0xC23 JUMP JUMPDEST PUSH2 0xD82 PUSH1 0x20 DUP4 ADD DUP5 PUSH2 0xB1D JUMP JUMPDEST SWAP4 SWAP3 POP POP POP JUMP JUMPDEST PUSH0 DUP2 ISZERO ISZERO SWAP1 POP SWAP2 SWAP1 POP JUMP JUMPDEST PUSH2 0xD9D DUP2 PUSH2 0xD89 JUMP JUMPDEST DUP2 EQ PUSH2 0xDA7 JUMPI PUSH0 DUP1 REVERT JUMPDEST POP JUMP JUMPDEST PUSH0 DUP2 MLOAD SWAP1 POP PUSH2 0xDB8 DUP2 PUSH2 0xD94 JUMP JUMPDEST SWAP3 SWAP2 POP POP JUMP JUMPDEST PUSH0 PUSH1 0x20 DUP3 DUP5 SUB SLT ISZERO PUSH2 0xDD3 JUMPI PUSH2 0xDD2 PUSH2 0xB45 JUMP JUMPDEST JUMPDEST PUSH0 PUSH2 0xDE0 DUP5 DUP3 DUP6 ADD PUSH2 0xDAA JUMP JUMPDEST SWAP2 POP POP SWAP3 SWAP2 POP POP JUMP JUMPDEST PUSH32 0x57697468647261775F5F5472616E736665724661696C65640000000000000000 PUSH0 DUP3 ADD MSTORE POP JUMP JUMPDEST PUSH0 PUSH2 0xE1D PUSH1 0x18 DUP4 PUSH2 0xCEA JUMP JUMPDEST SWAP2 POP PUSH2 0xE28 DUP3 PUSH2 0xDE9 JUMP JUMPDEST PUSH1 0x20 DUP3 ADD SWAP1 POP SWAP2 SWAP1 POP JUMP JUMPDEST PUSH0 PUSH1 0x20 DUP3 ADD SWAP1 POP DUP2 DUP2 SUB PUSH0 DUP4 ADD MSTORE PUSH2 0xE4A DUP2 PUSH2 0xE11 JUMP JUMPDEST SWAP1 POP SWAP2 SWAP1 POP JUMP JUMPDEST PUSH0 PUSH2 0xE5B DUP3 PUSH2 0xB14 JUMP JUMPDEST SWAP2 POP PUSH2 0xE66 DUP4 PUSH2 0xB14 JUMP JUMPDEST SWAP3 POP DUP3 DUP3 SUB SWAP1 POP DUP2 DUP2 GT ISZERO PUSH2 0xE7E JUMPI PUSH2 0xE7D PUSH2 0xC8A JUMP JUMPDEST JUMPDEST SWAP3 SWAP2 POP POP JUMP JUMPDEST PUSH32 0x4E487B7100000000000000000000000000000000000000000000000000000000 PUSH0 MSTORE PUSH1 0x12 PUSH1 0x4 MSTORE PUSH1 0x24 PUSH0 REVERT JUMPDEST PUSH0 PUSH2 0xEBB DUP3 PUSH2 0xB14 JUMP JUMPDEST SWAP2 POP PUSH2 0xEC6 DUP4 PUSH2 0xB14 JUMP JUMPDEST SWAP3 POP DUP3 PUSH2 0xED6 JUMPI PUSH2 0xED5 PUSH2 0xE84 JUMP JUMPDEST JUMPDEST DUP3 DUP3 DIV SWAP1 POP SWAP3 SWAP2 POP POP JUMP JUMPDEST PUSH0 PUSH2 0xEEB DUP3 PUSH2 0xB14 JUMP JUMPDEST SWAP2 POP PUSH2 0xEF6 DUP4 PUSH2 0xB14 JUMP JUMPDEST SWAP3 POP DUP3 DUP3 MUL PUSH2 0xF04 DUP2 PUSH2 0xB14 JUMP JUMPDEST SWAP2 POP DUP3 DUP3 DIV DUP5 EQ DUP4 ISZERO OR PUSH2 0xF1B JUMPI PUSH2 0xF1A PUSH2 0xC8A JUMP JUMPDEST JUMPDEST POP SWAP3 SWAP2 POP POP JUMP JUMPDEST PUSH32 0x5374616B696E673A204E6F7420656E6F7567682062616C616E636520746F2073 PUSH0 DUP3 ADD MSTORE PUSH32 0x74616B6500000000000000000000000000000000000000000000000000000000 PUSH1 0x20 DUP3 ADD MSTORE POP JUMP JUMPDEST PUSH0 PUSH2 0xF7C PUSH1 0x24 DUP4 PUSH2 0xCEA JUMP JUMPDEST SWAP2 POP PUSH2 0xF87 DUP3 PUSH2 0xF22 JUMP JUMPDEST PUSH1 0x40 DUP3 ADD SWAP1 POP SWAP2 SWAP1 POP JUMP JUMPDEST PUSH0 PUSH1 0x20 DUP3 ADD SWAP1 POP DUP2 DUP2 SUB PUSH0 DUP4 ADD MSTORE PUSH2 0xFA9 DUP2 PUSH2 0xF70 JUMP JUMPDEST SWAP1 POP SWAP2 SWAP1 POP JUMP JUMPDEST PUSH0 PUSH1 0x60 DUP3 ADD SWAP1 POP PUSH2 0xFC3 PUSH0 DUP4 ADD DUP7 PUSH2 0xC23 JUMP JUMPDEST PUSH2 0xFD0 PUSH1 0x20 DUP4 ADD DUP6 PUSH2 0xC23 JUMP JUMPDEST PUSH2 0xFDD PUSH1 0x40 DUP4 ADD DUP5 PUSH2 0xB1D JUMP JUMPDEST SWAP5 SWAP4 POP POP POP POP JUMP INVALID LOG2 PUSH5 0x6970667358 0x22 SLT KECCAK256 JUMPI SWAP4 SWAP14 DUP15 PUSH12 0x5FD3352B66166DB07BD7C139 0x26 PUSH15 0x18967B39BCA2A9F56DBC79324E6473 PUSH16 0x6C634300081800330000000000000000 "},"gasEstimates":{"creation":{"codeDepositCost":"824600","executionCost":"infinite","totalCost":"infinite"},"external":{"claimRewards()":"infinite","policyRewardsperToken(address)":"infinite","returnBalanceHJK()":"infinite","rewardAcumulatedPerUser(address)":"2847","rewardPeriod()":"413","rewardRate()":"414","stake(uint256)":"infinite","stakers(address)":"2846","totalSupplyStaked()":"2492","unstaked(uint256)":"infinite"}},"methodIdentifiers":{"claimRewards()":"372500ab","policyRewardsperToken(address)":"8a31d976","returnBalanceHJK()":"224882a8","rewardAcumulatedPerUser(address)":"5d471b74","rewardPeriod()":"e88dc5b7","rewardRate()":"7b0a47ee","stake(uint256)":"a694fc3a","stakers(address)":"9168ae72","totalSupplyStaked()":"631b8ad3","unstaked(uint256)":"862f62b4"}},"storageLayout":{"storage":[{"astId":626,"contract":"Stake.sol:Stake","label":"mytoken","offset":0,"slot":"0","type":"t_contract(myToken)614"},{"astId":630,"contract":"Stake.sol:Stake","label":"stakers","offset":0,"slot":"1","type":"t_mapping(t_address,t_uint256)"},{"astId":632,"contract":"Stake.sol:Stake","label":"totalSupplyStaked","offset":0,"slot":"2","type":"t_uint256"},{"astId":636,"contract":"Stake.sol:Stake","label":"lastUpdateTime","offset":0,"slot":"3","type":"t_mapping(t_address,t_uint256)"},{"astId":640,"contract":"Stake.sol:Stake","label":"rewardAcumulatedPerUser","offset":0,"slot":"4","type":"t_mapping(t_address,t_uint256)"}],"types":{"t_address":{"encoding":"inplace","label":"address","numberOfBytes":"20"},"t_contract(myToken)614":{"encoding":"inplace","label":"contract myToken","numberOfBytes":"20"},"t_mapping(t_address,t_uint256)":{"encoding":"mapping","key":"t_address","label":"mapping(address => uint256)","numberOfBytes":"32","value":"t_uint256"},"t_uint256":{"encoding":"inplace","label":"uint256","numberOfBytes":"32"}}},"userdoc":{"kind":"user","methods":{},"version":1}}