{
  "contractName": "Stake",
  "abi": [
    {
      "inputs": [
        {
          "internalType": "address",
          "name": "tokenAddress",
          "type": "address"
        }
      ],
      "stateMutability": "nonpayable",
      "type": "constructor"
    },
    {
      "anonymous": false,
      "inputs": [
        {
          "indexed": false,
          "internalType": "address",
          "name": "approver",
          "type": "address"
        },
        {
          "indexed": false,
          "internalType": "address",
          "name": "spender",
          "type": "address"
        },
        {
          "indexed": false,
          "internalType": "uint256",
          "name": "amount",
          "type": "uint256"
        }
      ],
      "name": "ApprovalStake",
      "type": "event"
    },
    {
      "inputs": [],
      "name": "owner",
      "outputs": [
        {
          "internalType": "address",
          "name": "",
          "type": "address"
        }
      ],
      "stateMutability": "view",
      "type": "function"
    },
    {
      "inputs": [
        {
          "internalType": "address",
          "name": "",
          "type": "address"
        }
      ],
      "name": "rewardAcumulatedPerUser",
      "outputs": [
        {
          "internalType": "uint256",
          "name": "",
          "type": "uint256"
        }
      ],
      "stateMutability": "view",
      "type": "function"
    },
    {
      "inputs": [],
      "name": "rewardPeriod",
      "outputs": [
        {
          "internalType": "uint256",
          "name": "",
          "type": "uint256"
        }
      ],
      "stateMutability": "view",
      "type": "function"
    },
    {
      "inputs": [],
      "name": "rewardRate",
      "outputs": [
        {
          "internalType": "uint256",
          "name": "",
          "type": "uint256"
        }
      ],
      "stateMutability": "view",
      "type": "function"
    },
    {
      "inputs": [
        {
          "internalType": "address",
          "name": "",
          "type": "address"
        }
      ],
      "name": "stakers",
      "outputs": [
        {
          "internalType": "uint256",
          "name": "",
          "type": "uint256"
        }
      ],
      "stateMutability": "view",
      "type": "function"
    },
    {
      "inputs": [],
      "name": "totalSupplyStaked",
      "outputs": [
        {
          "internalType": "uint256",
          "name": "",
          "type": "uint256"
        }
      ],
      "stateMutability": "view",
      "type": "function"
    },
    {
      "inputs": [
        {
          "internalType": "uint256",
          "name": "_amount",
          "type": "uint256"
        }
      ],
      "name": "stake",
      "outputs": [],
      "stateMutability": "nonpayable",
      "type": "function"
    },
    {
      "inputs": [
        {
          "internalType": "uint256",
          "name": "_amount",
          "type": "uint256"
        }
      ],
      "name": "unstaked",
      "outputs": [],
      "stateMutability": "nonpayable",
      "type": "function"
    },
    {
      "inputs": [
        {
          "internalType": "address",
          "name": "staker",
          "type": "address"
        }
      ],
      "name": "policyRewardsperToken",
      "outputs": [
        {
          "internalType": "uint256",
          "name": "",
          "type": "uint256"
        }
      ],
      "stateMutability": "view",
      "type": "function"
    },
    {
      "inputs": [],
      "name": "claimRewards",
      "outputs": [],
      "stateMutability": "nonpayable",
      "type": "function"
    },
    {
      "inputs": [],
      "name": "totalWithdrawPerUser",
      "outputs": [
        {
          "internalType": "uint256",
          "name": "",
          "type": "uint256"
        }
      ],
      "stateMutability": "view",
      "type": "function"
    }
  ],
  "bytecode": "0x608060405234801562000010575f80fd5b506040516200117e3803806200117e8339818101604052810190620000369190620001af565b805f806101000a81548173ffffffffffffffffffffffffffffffffffffffff021916908373ffffffffffffffffffffffffffffffffffffffff1602179055505f8054906101000a900473ffffffffffffffffffffffffffffffffffffffff1673ffffffffffffffffffffffffffffffffffffffff16638da5cb5b6040518163ffffffff1660e01b8152600401602060405180830381865afa158015620000de573d5f803e3d5ffd5b505050506040513d601f19601f82011682018060405250810190620001049190620001af565b60015f6101000a81548173ffffffffffffffffffffffffffffffffffffffff021916908373ffffffffffffffffffffffffffffffffffffffff16021790555050620001df565b5f80fd5b5f73ffffffffffffffffffffffffffffffffffffffff82169050919050565b5f62000179826200014e565b9050919050565b6200018b816200016d565b811462000196575f80fd5b50565b5f81519050620001a98162000180565b92915050565b5f60208284031215620001c757620001c66200014a565b5b5f620001d68482850162000199565b91505092915050565b610f9180620001ed5f395ff3fe608060405234801561000f575f80fd5b50600436106100a7575f3560e01c80638a31d9761161006f5780638a31d9761461013d5780638da5cb5b1461016d5780639168ae721461018b578063a694fc3a146101bb578063e3094ad1146101d7578063e88dc5b7146101f5576100a7565b8063372500ab146100ab5780635d471b74146100b5578063631b8ad3146100e55780637b0a47ee14610103578063862f62b414610121575b5f80fd5b6100b3610213565b005b6100cf60048036038101906100ca9190610b27565b6104a1565b6040516100dc9190610b6a565b60405180910390f35b6100ed6104b6565b6040516100fa9190610b6a565b60405180910390f35b61010b6104bc565b6040516101189190610b6a565b60405180910390f35b61013b60048036038101906101369190610bad565b6104c1565b005b61015760048036038101906101529190610b27565b6106ee565b6040516101649190610b6a565b60405180910390f35b610175610807565b6040516101829190610be7565b60405180910390f35b6101a560048036038101906101a09190610b27565b61082c565b6040516101b29190610b6a565b60405180910390f35b6101d560048036038101906101d09190610bad565b610841565b005b6101df610a6d565b6040516101ec9190610b6a565b60405180910390f35b6101fd610ac4565b60405161020a9190610b6a565b60405180910390f35b335f61021e826106ee565b90508060055f8473ffffffffffffffffffffffffffffffffffffffff1673ffffffffffffffffffffffffffffffffffffffff1681526020019081526020015f205f82825461026c9190610c2d565b925050819055504260045f8473ffffffffffffffffffffffffffffffffffffffff1673ffffffffffffffffffffffffffffffffffffffff1681526020019081526020015f20819055505f60055f3373ffffffffffffffffffffffffffffffffffffffff1673ffffffffffffffffffffffffffffffffffffffff1681526020019081526020015f205490505f8111610338576040517f08c379a000000000000000000000000000000000000000000000000000000000815260040161032f90610cba565b60405180910390fd5b5f8054906101000a900473ffffffffffffffffffffffffffffffffffffffff1673ffffffffffffffffffffffffffffffffffffffff166340c10f1930836040518363ffffffff1660e01b8152600401610392929190610cd8565b5f604051808303815f87803b1580156103a9575f80fd5b505af11580156103bb573d5f803e3d5ffd5b505050505f60055f3373ffffffffffffffffffffffffffffffffffffffff1673ffffffffffffffffffffffffffffffffffffffff1681526020019081526020015f20819055505f8054906101000a900473ffffffffffffffffffffffffffffffffffffffff1673ffffffffffffffffffffffffffffffffffffffff1663a9059cbb33836040518363ffffffff1660e01b815260040161045b929190610cd8565b6020604051808303815f875af1158015610477573d5f803e3d5ffd5b505050506040513d601f19601f8201168201806040525081019061049b9190610d34565b50505050565b6005602052805f5260405f205f915090505481565b60035481565b600281565b335f6104cc826106ee565b90508060055f8473ffffffffffffffffffffffffffffffffffffffff1673ffffffffffffffffffffffffffffffffffffffff1681526020019081526020015f205f82825461051a9190610c2d565b925050819055504260045f8473ffffffffffffffffffffffffffffffffffffffff1673ffffffffffffffffffffffffffffffffffffffff1681526020019081526020015f20819055508260025f3373ffffffffffffffffffffffffffffffffffffffff1673ffffffffffffffffffffffffffffffffffffffff1681526020019081526020015f205410156105e3576040517f08c379a00000000000000000000000000000000000000000000000000000000081526004016105da90610da9565b60405180910390fd5b8260025f3373ffffffffffffffffffffffffffffffffffffffff1673ffffffffffffffffffffffffffffffffffffffff1681526020019081526020015f205f82825461062f9190610dc7565b925050819055508260035f8282546106479190610dc7565b925050819055505f8054906101000a900473ffffffffffffffffffffffffffffffffffffffff1673ffffffffffffffffffffffffffffffffffffffff1663a9059cbb33856040518363ffffffff1660e01b81526004016106a8929190610cd8565b6020604051808303815f875af11580156106c4573d5f803e3d5ffd5b505050506040513d601f19601f820116820180604052508101906106e89190610d34565b50505050565b5f8060025f8473ffffffffffffffffffffffffffffffffffffffff1673ffffffffffffffffffffffffffffffffffffffff1681526020019081526020015f20540361073b575f9050610802565b5f60025f8473ffffffffffffffffffffffffffffffffffffffff1673ffffffffffffffffffffffffffffffffffffffff1681526020019081526020015f205490505f60045f8573ffffffffffffffffffffffffffffffffffffffff1673ffffffffffffffffffffffffffffffffffffffff1681526020019081526020015f2054426107c69190610dc7565b90505f601e826107d69190610e27565b60646002856107e59190610e57565b6107ef9190610e27565b6107f99190610e57565b90508093505050505b919050565b60015f9054906101000a900473ffffffffffffffffffffffffffffffffffffffff1681565b6002602052805f5260405f205f915090505481565b335f61084c826106ee565b90508060055f8473ffffffffffffffffffffffffffffffffffffffff1673ffffffffffffffffffffffffffffffffffffffff1681526020019081526020015f205f82825461089a9190610c2d565b925050819055504260045f8473ffffffffffffffffffffffffffffffffffffffff1673ffffffffffffffffffffffffffffffffffffffff1681526020019081526020015f20819055505f8311610925576040517f08c379a000000000000000000000000000000000000000000000000000000000815260040161091c90610f08565b60405180910390fd5b5f8054906101000a900473ffffffffffffffffffffffffffffffffffffffff1673ffffffffffffffffffffffffffffffffffffffff166323b872dd3330866040518463ffffffff1660e01b815260040161098193929190610f26565b6020604051808303815f875af115801561099d573d5f803e3d5ffd5b505050506040513d601f19601f820116820180604052508101906109c19190610d34565b508260025f3373ffffffffffffffffffffffffffffffffffffffff1673ffffffffffffffffffffffffffffffffffffffff1681526020019081526020015f205f828254610a0e9190610c2d565b925050819055508260035f828254610a269190610c2d565b925050819055507f4ed42d10be8be4be811ad97e96dc71c63cc444735943e4c45a6d61755bae6f13333085604051610a6093929190610f26565b60405180910390a1505050565b5f60055f3373ffffffffffffffffffffffffffffffffffffffff1673ffffffffffffffffffffffffffffffffffffffff1681526020019081526020015f2054610ab5336106ee565b610abf9190610c2d565b905090565b601e81565b5f80fd5b5f73ffffffffffffffffffffffffffffffffffffffff82169050919050565b5f610af682610acd565b9050919050565b610b0681610aec565b8114610b10575f80fd5b50565b5f81359050610b2181610afd565b92915050565b5f60208284031215610b3c57610b3b610ac9565b5b5f610b4984828501610b13565b91505092915050565b5f819050919050565b610b6481610b52565b82525050565b5f602082019050610b7d5f830184610b5b565b92915050565b610b8c81610b52565b8114610b96575f80fd5b50565b5f81359050610ba781610b83565b92915050565b5f60208284031215610bc257610bc1610ac9565b5b5f610bcf84828501610b99565b91505092915050565b610be181610aec565b82525050565b5f602082019050610bfa5f830184610bd8565b92915050565b7f4e487b71000000000000000000000000000000000000000000000000000000005f52601160045260245ffd5b5f610c3782610b52565b9150610c4283610b52565b9250828201905080821115610c5a57610c59610c00565b5b92915050565b5f82825260208201905092915050565b7f4e6f207265776172647320617661696c61626c650000000000000000000000005f82015250565b5f610ca4601483610c60565b9150610caf82610c70565b602082019050919050565b5f6020820190508181035f830152610cd181610c98565b9050919050565b5f604082019050610ceb5f830185610bd8565b610cf86020830184610b5b565b9392505050565b5f8115159050919050565b610d1381610cff565b8114610d1d575f80fd5b50565b5f81519050610d2e81610d0a565b92915050565b5f60208284031215610d4957610d48610ac9565b5b5f610d5684828501610d20565b91505092915050565b7f57697468647261775f5f5472616e736665724661696c656400000000000000005f82015250565b5f610d93601883610c60565b9150610d9e82610d5f565b602082019050919050565b5f6020820190508181035f830152610dc081610d87565b9050919050565b5f610dd182610b52565b9150610ddc83610b52565b9250828203905081811115610df457610df3610c00565b5b92915050565b7f4e487b71000000000000000000000000000000000000000000000000000000005f52601260045260245ffd5b5f610e3182610b52565b9150610e3c83610b52565b925082610e4c57610e4b610dfa565b5b828204905092915050565b5f610e6182610b52565b9150610e6c83610b52565b9250828202610e7a81610b52565b91508282048414831517610e9157610e90610c00565b5b5092915050565b7f5374616b696e673a20416d6f756e74206d7573742062652067726561746572205f8201527f7468616e207a65726f0000000000000000000000000000000000000000000000602082015250565b5f610ef2602983610c60565b9150610efd82610e98565b604082019050919050565b5f6020820190508181035f830152610f1f81610ee6565b9050919050565b5f606082019050610f395f830186610bd8565b610f466020830185610bd8565b610f536040830184610b5b565b94935050505056fea2646970667358221220c7b9d211fa427ace84e1637a844d18a6e18b0972928b7e7b38e0e7bf375773c264736f6c63430008150033",
  "immutableReferences": {},
  "source": "// SPDX-License-Identifier: MIT\r\n// Compatible with OpenZeppelin Contracts ^5.0.0\r\npragma solidity ^0.8.20;\r\n\r\nimport \"@openzeppelin/contracts/token/ERC20/ERC20.sol\";\r\nimport \"@openzeppelin/contracts/token/ERC20/extensions/ERC20Burnable.sol\";\r\nimport \"@openzeppelin/contracts/access/Ownable.sol\";\r\nimport \"@openzeppelin/contracts/token/ERC20/extensions/ERC20Permit.sol\";\r\n\r\ncontract MyToken is ERC20, ERC20Burnable, Ownable {\r\n\r\n    constructor()\r\n        ERC20(\"MyToken\", \"HJK\")\r\n        Ownable(msg.sender)\r\n    {\r\n        _mint(msg.sender, 1000 * 10 ** decimals());\r\n    }\r\n\r\n    function mint(address to, uint256 amount) external {\r\n        _mint(to, amount);\r\n    }\r\n}\r\n\r\nerror Staking__TransferFailed();\r\nerror Withdraw__TransferFailed();\r\nerror Staking__NeedsMoreThanZero();\r\n\r\ncontract Stake { \r\n    MyToken private mytoken;\r\n    address public owner;\r\n\r\n    constructor(address tokenAddress) {\r\n        mytoken = MyToken(tokenAddress);\r\n        owner = mytoken.owner();\r\n    }\r\n\r\n    mapping(address => uint) public stakers;\r\n    uint public totalSupplyStaked;\r\n    // rastreio de tempo\r\n    mapping(address => uint) internal lastUpdateTime;\r\n    // rastreio de acumulao do token\r\n    mapping(address => uint) public rewardAcumulatedPerUser;\r\n    uint public constant rewardRate = 2; // taxa de 2%\r\n    uint public constant rewardPeriod = 30; // ganho a cada 30s\r\n\r\n    event ApprovalStake(address approver, address spender, uint amount);\r\n\r\n    modifier updateData(address staker) {\r\n        uint reward = policyRewardsperToken(staker);\r\n        rewardAcumulatedPerUser[staker] += reward;\r\n        lastUpdateTime[staker] = block.timestamp;\r\n        _;\r\n    }\r\n    \r\n    // stake\r\n    function stake(uint256 _amount) external updateData(msg.sender) {\r\n        require(_amount > 0, \"Staking: Amount must be greater than zero\");\r\n\r\n        // Transfer tokens from user to contract\r\n        mytoken.transferFrom(msg.sender, address(this), _amount);\r\n\r\n        stakers[msg.sender] += _amount;\r\n        totalSupplyStaked += _amount;\r\n\r\n        emit ApprovalStake(msg.sender, address(this), _amount);\r\n    }\r\n\r\n    // unstaked\r\n    function unstaked(uint _amount) external updateData(msg.sender) {\r\n        require(stakers[msg.sender] >= _amount, \"Withdraw__TransferFailed\");\r\n\r\n        stakers[msg.sender] -= _amount;\r\n        totalSupplyStaked -= _amount;\r\n\r\n        // Transfer tokens from contract to user\r\n        mytoken.transfer(msg.sender, _amount);\r\n    }\r\n\r\n    // policy rewards\r\n    function policyRewardsperToken(address staker) public view returns(uint) {\r\n        if (stakers[staker] == 0) {\r\n            return 0;\r\n        } else {\r\n            uint currentBalance = stakers[staker]; \r\n            uint timeStaked = block.timestamp - lastUpdateTime[staker]; // tempo em stake\r\n\r\n            uint totalReward = (currentBalance * rewardRate / 100) * (timeStaked / rewardPeriod);\r\n\r\n            return totalReward;\r\n        } \r\n    }\r\n\r\n    // claimRewards\r\n    function claimRewards() external updateData(msg.sender) {\r\n        uint reward = rewardAcumulatedPerUser[msg.sender];\r\n        require(reward > 0, \"No rewards available\");\r\n\r\n        mytoken.mint(address(this), reward);\r\n        rewardAcumulatedPerUser[msg.sender] = 0;\r\n        mytoken.transfer(msg.sender, reward);\r\n    }\r\n\r\n    // All rewards for withdraw\r\n    function totalWithdrawPerUser() external view returns(uint) {\r\n        return policyRewardsperToken(msg.sender) + rewardAcumulatedPerUser[msg.sender];\r\n    }\r\n}\r\n",
  "sourcePath": "C:\\Users\\Henry\\Desktop\\stake-sol-erc20\\contracts\\Stake.sol",
  "compiler": {
    "name": "solc",
    "version": "0.8.21+commit.d9974bed.Emscripten.clang"
  },
  "schemaVersion": "3.4.16",
  "updatedAt": "2024-06-25T14:43:23.826Z",
  "devdoc": {
    "kind": "dev",
    "methods": {},
    "version": 1
  },
  "userdoc": {
    "kind": "user",
    "methods": {},
    "version": 1
  }
}